:020000040800F2
:100000009027002005010008672B0008E52700085D
:10001000652B0008BD020008B74F00080000000073
:100020000000000000000000000000007B34000819
:100030003103000800000000793400087D34000816
:100040001F0100081F0100081F0100081F01000810
:100050001F0100081F0100081F0100081F01000800
:100060001F0100081F0100081F0100081F010008F0
:100070001F0100081F0100081F0100081F010008E0
:100080001F0100081F0100081F0100081F010008D0
:10009000D94E00081F0100081F0100081F010008B9
:1000A0001F0100081F0100081F0100081F010008B0
:1000B000F93400081F0100081F0100081F01000893
:1000C0001F0100081F0100081F0100081F01000890
:1000D0001F01000865380008713800087D380008E5
:1000E0001F0100081F0100081F010008DFF810D0E1
:1000F00000F098F80048004735530008AFF300803F
:10010000902700200648804706480047FEE7FEE7A4
:10011000FEE7FEE7FEE7FEE7FEE7FEE7FEE7FEE7B7
:10012000F7340008ED000008202A04DB203A21FA09
:1001300002F00021704721FA02F3D040C2F1200200
:10014000914008431946704740EA01039B0703D0DA
:1001500009E008C9121F08C0042AFAD203E011F806
:10016000013B00F8013B521EF9D27047D2B201E0C8
:1001700000F8012B491EFBD270470022F6E710B5AC
:1001800013460A4604461946FFF7F0FF204610BD05
:1001900030B505462A460B4612F8010B13F8014B01
:1001A00008B1A042F8D01CB1002802D06D1CF1E7C4
:1001B000284630BD421C10F8011B0029FBD1801AD3
:1001C00070472DE9F05F0546002092469B46884621
:1001D0000646814640241BE02846414647462246C3
:1001E000FFF7A2FF53465A46C01A914110D3114659
:1001F0001846224600F028F82D1A67EB01084F46F2
:1002000022460120002100F01FF817EB00094E41A3
:10021000201EA4F10104DFDC484631462A4643464D
:10022000BDE8F09F064C074D06E0E06840F0010392
:1002300094E8070098471034AC42F6D3FFF75AFF12
:100240006079000880790008202A04DB203A00FA4F
:1002500002F1002070479140C2F1200320FA03F31D
:1002600019439040704770B58C1810F8015B15F079
:10027000070301D110F8013B2A1106D110F8012B18
:1002800003E010F8016B01F8016B5B1EF9D12B073D
:1002900005D40023521E0DD401F8013BFAE710F8F3
:1002A000013BCB1A921C03E013F8015B01F8015BE0
:1002B000521EF9D5A142D8D3002070BDFEE7002020
:1002C000704700207047000010B50022044905481F
:1002D00003F0CCFB0449034803F0C2FB002010BD2F
:1002E000101100203C030020100D002010B5014625
:1002F000034803F0B5FB024803F096FB002010BD55
:100300003C030020094A10B5D2F8B822D2F81422D2
:100310000AB1012010BD0A460146044803F0A6FBBD
:10032000BDE81040014803F0FFBB00003C03002083
:100330007047000010B50124A0B1012819D002288F
:1003400020D0032827D004282CD0052809D11FA0AD
:1003500000F07AFA002834D028A004F02DFE3048AE
:10036000447010BD00F0D0F900282BD02DA004F06F
:1003700023FE32A134A000F019F900281DD036A0C8
:1003800004F01AFE3A4A3B493BA000F099FAB0B19A
:100390003BA004F011FE404800F0D0FA78B13FA035
:1003A00004F00AFE4448008881B2444800F05AF93B
:1003B00028B143A004F000FEC9E7012002E00220BA
:1003C00000E00420BDE8104000F0EABA247379731D
:1003D0002F3866685651303632427A2F6571302F89
:1003E0007468696E672F70726F70657274792F70A0
:1003F0006F73742F7265706C79000000455350382C
:10040000323636D6D0D2C6B6AF4D515454B6A9D432
:10041000C4D6F7CCE2B3C9B9A6A3A10D0A00000067
:100420000000002045535038323636B3F5CABCBB05
:10043000AFB3C9B9A6A3A10D0A0000006161626251
:1004400063636464313233004D4552435552595F02
:10045000333533320000000045535038323636C150
:10046000ACBDD3C8C8B5E3B3C9B9A6A3A10D0A00F2
:10047000101E0020901D00204E554C4C0000000026
:10048000C5E4D6C36D717474D0C5CFA2B3C9B9A683
:10049000A3A10D0A00000000101D0020C5E4D6C372
:1004A000436C69656E744944D0C5CFA2B3C9B9A67F
:1004B000A3A10D0A00000000A0000020101F0020D2
:1004C00045535038323636C1ACBDD3D6D0D2C6B67D
:1004D000AFB7FECEF1C6F7B3C9B9A6A3A10D0A0006
:1004E00070B50C4605464FF480710748FFF745FE8E
:1004F00006490020224608802946BDE870404FF694
:10050000FF73034802F020B9101B00209000002068
:10051000AC02002010B504464FF480710B48FFF781
:100520002CFE0B490020088021460AA004F044FD5F
:100530000C4806E0026851600168641C0A685206B3
:10054000FCD521780029F5D110BD0000101B00203A
:100550009000002053656E64436D64203A25730D4E
:100560000A000000AC02002070B505244FF40075AD
:100570000EE029460948FFF700FE09A0FFF7CAFF71
:10058000C82209A1054800F07DFA08B1012070BD1C
:100590002046641EE4B2ECD270BD0000101B0020A7
:1005A00041540D0A000000004F4B00002DE9F041BE
:1005B0000E46804605244FF400750CE02946194884
:1005C000FFF7DBFD18A0FFF7A5FFC8221AA1154809
:1005D00000F058FA10B9641EE4B2EFD2022444F6D7
:1005E000206719E029461548FFF7C7FD29460D4841
:1005F000FFF7C3FD3346424611A1104804F0ECFC5E
:100600000E48FFF787FF3A4613A1064800F03AFA72
:1006100010B10120BDE8F0812046641EE4B2E1D2B1
:10062000F8E70000101B002041542B43574D4F4466
:10063000453D310D0A0000004F4B0000101900200D
:1006400041542B43574A41503D222573222C2225E9
:1006500073220D0A000000005749464920474F54B5
:10066000204950002DE9F04101240F4680466502E3
:100670004FF4FA561CE029461048FFF77EFD294644
:100680000F48FFF77AFD3B4642460EA10B4804F0A7
:10069000A3FC0A48FFF73EFFC82000F087FA324665
:1006A0000FA1074800F0EEF910B10120BDE8F0817C
:1006B0002046641EE4B2DED2F8E7000010190020E4
:1006C000101B002041542B4D515454434F4E4E3D6E
:1006D000302C222573222C25642C310D0A000000B9
:1006E0004F4B000010B507A0FFF714FF322000F0B9
:1006F0005DFA04A0FFF70EFFBDE81040322000F0C5
:1007000055BA00002B2B2B0070B54FF40074214616
:100710001648FFF732FD21461548FFF72EFDFFF77B
:10072000E1FF4FF4FA75284600F040FA11A0FFF7F8
:10073000F1FE4FF44876304600F038FAFFF714FF28
:10074000002811D0304600F031FA21460848FFF762
:1007500014FD0BA0FFF7DEFE2A460BA1044800F0B3
:1007600091F9002800D0012070BD00001019002070
:10077000101B002041542B5253540D0A000000005E
:10078000415445300D0A00004F4B000070B50D4636
:1007900004464FF4007631461948FFF7EEFC314627
:1007A0001848FFF7EAFC2846FFF704FD03462246F7
:1007B00015A1134804F010FC1148FFF7ABFEC82048
:1007C00000F0F4F94FF4967217A10E4800F05AF9B0
:1007D00098B12846FFF7EEFC81B22846FFF780FE6D
:1007E000294612A004F0E8FB4FF4FA5213A1054881
:1007F00000F048F908B1012070BD002070BD000074
:1008000010190020101B002041542B4D51545450FE
:1008100055425241573D302C222573222C25642C01
:10082000302C300D0A0000004F4B00007061796CD5
:100830006F6164203A202573200D0A004D515454F5
:100840005055423A4F4B00002DE9F0410224074633
:1008500025024FF496761BE029461048FFF78DFCE1
:1008600029460F48FFF789FC3A460EA10B4804F0D1
:10087000B3FB0A48FFF74EFEC82000F097F9324656
:100880000EA1074800F0FEF810B10120BDE8F0818C
:100890002046641EE4B2DFD2F8E700001019002001
:1008A000101B002041542B4D5154545355423D30A0
:1008B0002C222573222C310D0A0000004F4B000022
:1008C000F8B50D4606464FF40077144639460D48F4
:1008D000FFF753FC39460C48FFF74FFC2B463246D6
:1008E0000AA10848009404F077FB0648FFF712FEBF
:1008F000502211A1044800F0C5F8002800D00120C2
:10090000F8BD000010190020101B002041542B4D91
:10091000515454555345524346473D302C312C22B7
:100920002573222C222573222C222573222C302C75
:10093000302C22220D0A00004F4B000070B50446F7
:100940004FF4007529460C48FFF717FC29460B4861
:10095000FFF713FC22460AA1074804F03DFB0648B6
:10096000FFF7D8FD50220DA1044800F08BF80028B5
:1009700000D0012070BD000010190020101B0020C5
:1009800041542B4D515454434C49454E5449443DD8
:10099000302C222573220D0A000000004F4B00006E
:1009A00010B5052817D2DFE800F003051012140077
:1009B0000AA000E00FA004F0FFFA14A004F0FCFA73
:1009C000BDE81040C82000F0F1B814A0F3E71AA069
:1009D000F1E720A0EFE727A0EDE7000045535038EE
:1009E000323636B3F5CABCBBAFCAA7B0DCA3A10D83
:1009F0000A00000045535038323636C1ACBDD3C86A
:100A0000C8B5E3CAA7B0DCA3A10D0A00C7EBD6D8CE
:100A1000C6F4BFAAB7A2B0E50000000045535038A5
:100A2000323636C1ACBDD320B7FECEF1C6F7CAA769
:100A3000B0DCA3A10D0A00004553503832363620F1
:100A40004D515454B5C7C2BDCAA7B0DCA3A10D0A0D
:100A50000000000045535038323636204D51545472
:100A6000B6A9D4C4D6F7CCE2CAA7B0DCA3A10D0ABC
:100A7000000000004E6F7468696E670D0A00000088
:100A800072B6FEE770B50A20B2FBF0F40D46C8203E
:100A900000E00A2000F08AF829460848FFF778FBB2
:100AA00010B9641EA4B2F4D2044905A004F084FA7B
:100AB0000CB1012070BD002070BD0000101B002093
:100AC0004563686F3A25730D0A00000010B590F871
:100AD00021100022022905D00421816380F8202002
:100AE000012010BD01680B6823F00E030B60016844
:100AF0000B6823F001030B6090F84030C46B0121B8
:100B000001FA03F3636080F8211080F8202010467A
:100B100010BD000010B590F821100024022903D068
:100B20000421816301243DE001680A6822F00E027D
:100B30000A6001680A6822F001020A601A4A016824
:100B4000914201D1012121E0174A1432914201D191
:100B500010211BE0144A2832914201D1891515E079
:100B6000114A3C32914201D189140FE00E4A5032B1
:100B7000914202D14FF4803108E00B4A6432914235
:100B800002D14FF4801101E04FF08071064A083A1B
:100B90005160012180F82110002180F82010416B64
:100BA00001B18847204610BD0800024070B50446D8
:100BB00000F008F90546601C02D00448007804449F
:100BC00000F000F9401BA042FAD370BD8000002065
:100BD0002DE9F84FDFF8B8910024A9F1040B234662
:100BE0000F2709F1040AABF1040EC9E00125A54065
:100BF0002A40AA427DD1674ED1F804C0ACEB06086A
:100C0000B44532D014DCBCF1030F3AD009DCBCF19E
:100C1000000F2AD0BCF1010F1CD0BCF1020F31D162
:100C20001DE0BCF1110F17D0BCF1120F2AD119E051
:100C3000B8F5881F19D006DCB8F5803F15D0B8F597
:100C4000801F1FD111E0B8F5001F0ED0B8F5041FAA
:100C500018D10AE0CB6815E0CB681B1D12E0CB6809
:100C600008330FE0CB680C330CE08B682BB1012B01
:100C70004FF0080303D0456104E0042302E005615E
:100C800000E00023FF2A01D8064601E000F1040637
:100C90004FEA840501D9A5F12005D6F8008007FAAE
:100CA00005FC28EA0C0803FA05F548EA0508C6F829
:100CB00000804D68ED0062D5374DAE6946F0010603
:100CC000AE61AD6924F0030605F001050095334DD2
:100CD00006EB050CDCF80850A607360F07FA06F8F5
:100CE00025EA0805DFF8B880404503D14FF0000839
:100CF00017E044E0DFF8AC80404502D14FF0010836
:100D00000FE0DFF8A480404502D14FF0020808E070
:100D1000DFF89880404502D14FF0030801E04FF022
:100D2000040808FA06F848EA0508CCF808804D6877
:100D3000D9F80060ED024D4601D5164300E0964318
:100D40002E604D68DAF80060AD02554601D51643B5
:100D500000E096432E604D68DBF80060AD035D4611
:100D600001D5164300E096432E604D68DEF8006022
:100D7000ED03754601D5164300E096432E60641CD2
:100D80000D682A46E5407FF431AFBDE8F88F0000DA
:100D90000804014000001110001002400000014052
:100DA00000080140000C0140001001400014014007
:100DB0008068084000D0012070470AB10161704787
:100DC0000904FBE7014880687047000080000020AC
:100DD00002488168027811448160704780000020D9
:100DE000074810B5016841F010010160032000F0D0
:100DF00075F80F2000F006F800F024F8002010BD70
:100E00000020024070B50D4D04464FF47A712878E9
:100E1000B1FBF0F00A490968B1FBF0F001F00EF8FF
:100E200048B9102C07D200222146501E00F036F897
:100E300000206C6070BD012070BD000080000020AB
:100E40008C0000200C4808B5816941F001018161E6
:100E5000816901F001010091C16941F08051C161D6
:100E6000C06900F0805000900448416821F0E061C2
:100E700041F00071416008BD0010024000000140D7
:100E8000002809DB00F01F02012191404009800089
:100E900000F1E020C0F8001170470000F0B40E4BE4
:100EA0001B680C46C3F30223C3F10705042D00D9C8
:100EB0000425191D072901D2002300E0DB1E0126AD
:100EC00006FA05F1491E214099409E40761E1640C3
:100ED0003143F0BC04F094B80CED00E0064900F09A
:100EE000070208684FF6FF03184040EA0220034A51
:100EF00010430860704700000CED00E00000FA05A8
:100F000010B50C0607D501F0070101EB810100EBDC
:100F1000C100283005E001EB810100EBC10000F5C4
:100F2000B47099B232B1012202730181190C41816E
:100F3000002010BD00220273C180F9E7704701EB69
:100F4000810200EBC202D0F8EC02D26B02F093BF38
:100F500001EB810200EBC202D0F8EC02D2F87C2156
:100F600002F0ECBF70B504460B0601F0070000EB81
:100F7000800104EBC1014FF001024FF0000503D5E1
:100F800081F82920283103E081F8695101F5B47115
:100F9000087094F8A802012808D084F8A8222068D4
:100FA00003F02EFC84F8A852002070BD022070BD12
:100FB00070B5044601F00F006268904201D901202B
:100FC00070BD0B0601F0070000EB800104EBC101CE
:100FD0004FF001024FF0000503D581F82920283198
:100FE00003E081F8695101F5B4718D70087094F8CF
:100FF000A802012808D084F8A822206803F09DFCEC
:1010000084F8A852002070BD022070BD2DE9F05F69
:1010100004685FEA424C0B788D69B4F850C04FF019
:1010200000064BF68F7948F2800A48F68F7B48F22B
:10103000C00E4FF480672AD54FF0020808EBC308B2
:10104000C44407EB4C07E45BC4F30904A54203D393
:101050002D1B8D6101D00BE08E61066836F82350A0
:1010600005EA090585F4005545EA0A0526F82350E6
:10107000520609D50D78036833F8252002EA0B02E1
:1010800042EA0E0223F8252084B30A8929E04FF0B2
:10109000060808EBC308C44407EB4C07E45BC4F341
:1010A0000904A54203D32D1B8D6101D00BE08E6195
:1010B000066836F8235005EA090585F4005545EA27
:1010C0000A0526F82350520609D40B78056835F82E
:1010D000232002EA0B0242EA0E0225F823202CB15B
:1010E0004A8949690068234603F034FF2046BDE879
:1010F000F09F2DE9F05F054600680C465FEA426C00
:1011000016468B692278B0F850C048F68F774CF2BB
:1011100080094FF4004B4FF6FF7E4FF4806A4FF08A
:10112000000172D54FF0020808EBC208E0440AEB58
:10113000480C30F80C00C0F30900834211D91B1A87
:10114000A3610FD0730407D52E6836F822303B40D8
:1011500043EA090326F8223094F82420012A47D0D4
:1011600052E1A161607810B1012813D01AE028681B
:10117000B0F85030184400EB0210B0F80424C2F369
:101180000902A0F80424B0F8042442F40042A0F8B4
:10119000042407E02868B0F85030184400EB02102F
:1011A000A0F804146278286812B1012A11D018E05E
:1011B000B0F850100844217800EB0110B0F80C147E
:1011C000C1F30901A0F80C14B0F80C1441F400416B
:1011D00005E0B0F850201044227800EB0210A0F88F
:1011E0000C1421782846FFF7AAFE700472D40BE194
:1011F000626902446261E2690244E2612369226A2F
:101200009A4203D31846111A04E03EE084F82410F1
:101210000AB110462162617811B1012929D031E06B
:101220002968B1F850201144227801EB0211B1F87D
:101230000424C2F30902A1F8042401F204413E2867
:1012400007D94209C30600D1521E0B884BEA8222FD
:1012500007E048B14208C30700D0521C0B880EEAD1
:10126000822213430B800DE00A8842F400420A8078
:1012700008E02968B1F850201144227801EB0211EE
:10128000A1F8040483B22289BAE04FF0060808EB03
:10129000C208E0440AEB480C30F80C00C0F3090027
:1012A000834211D31B1AA3610FD0730407D42E6895
:1012B00036F822303B4043EA090326F8223094F8FE
:1012C0002420012A51D09FE0A161607818B1012843
:1012D00014D01BE03FE02868B0F85030184400EB11
:1012E0000210B0F80424C2F30902A0F80424B0F8F4
:1012F000042442F40042A0F8042407E02868B0F86F
:101300005030184400EB0210A0F8041462782868EA
:1013100012B1012A11D018E0B0F850100844217819
:1013200000EB0110B0F80C14C1F30901A0F80C1483
:10133000B0F80C1441F4004105E0B0F8502010441E
:10134000227800EB0210A0F80C1421782846FFF751
:10135000F6FD700458D42278296831F8220038400C
:1013600040EA090021F822004EE06269024462610D
:10137000E2690244E2612369226A9A4203D3184671
:10138000111A216204E00AB11046216284F8241087
:101390006278296812B1012A28D02FE0B1F85020D4
:1013A0001144227801EB0211B1F80C24C2F30902B6
:1013B000A1F80C2401F20C413E2807D94209C306CA
:1013C00000D1521E0B884BEA822207E048B1420846
:1013D000C30700D0521C0B880EEA822213430B80F5
:1013E0000CE00A8842F400420A8007E0B1F850207D
:1013F0001144227801EB0211A1F80C04628983B236
:101400006169286803F0C4FD2278296831F8220058
:1014100048F6BF73184080F0300048F2800318434C
:1014200021F822000020BDE8F09F01F0070101EB48
:10143000810100EBC100D0F8840170472DE9F04133
:1014400004460F0601F0070000EB800104EBC10128
:101450004FF001064FF0000503D581F829602831CF
:1014600003E081F8695101F5B471022B08700A613B
:10147000CB7000D10D7194F8A802012809D084F82E
:10148000A862206803F06CF8284684F8A852BDE8EA
:10149000F0810220FBE710B501F0070404EB8401A2
:1014A00000EBC101C1E95F230022C1F8842181F86A
:1014B000692181F86841006801F5B47103F092FA7E
:1014C000002010BD70B504460D4601F007006168AC
:1014D000884201D9012070BD29064FF000064FF067
:1014E000010207D500EB800104EBC10181F829203E
:1014F000283107E005EB850104EBC10181F8696142
:1015000001F5B4718A70087094F8A802012807D018
:1015100084F8A822206803F04CFA680702D006E09D
:10152000022070BD04F52C71206803F004FA84F8E1
:10153000A862002070BD10B501F0070404EB84011F
:1015400000EBC101C1E90F23012281F84C208B641B
:1015500000234B6481F8292001F8284F006803F02C
:1015600041FA002010BD00001FB50446006803F0DA
:10157000EDFC010403D5204601F0A8FD1FBD410587
:101580000DD5206830F8441F21F480610180204689
:1015900000F010F90021204600F027F91FBD41049A
:1015A00005D5206830F8441F21F4804174E081049F
:1015B00005D5206830F8441F21F400516CE0C104C7
:1015C00014D5206830F8401F21F004010180206804
:1015D00030F8401F21F008010180204600F0FDF89E
:1015E000206830F8441F21F4805155E0010540D5B2
:1015F000D4F800200020694632F8203021F810305D
:10160000401CC0B20828F7D332F8400F40F0010068
:101610001080206830F8402F22F0010202802068FC
:10162000B0F844205205FBD530F8442F22F48062F4
:1016300002800020236831F8102023F82020401C6D
:10164000C0B20828F6D3206830F8401F41F00801E6
:101650000180206830F8441F21F400610180206877
:1016600030F8401F41F004010180204600F0F2F8FC
:101670001FBD810509D5206830F8441F21F4007191
:101680000180204600F0ADF81FBDC005FCD52068E4
:1016900030F8441F21F4807101801FBD2DE9F04115
:1016A00086B0040004D094F8A902002520B108E017
:1016B000012006B0BDE8F08184F8A852204600F071
:1016C0005BF8032084F8A902206803F02DF904F1E7
:1016D0001001142288466846FEF736FD94E80F0094
:1016E00003F08CF80227D0BB0021206803F048FCEF
:1016F000002001260EE000BF00EB800104EBC101D9
:1017000081F8296001F8280F401CCD700D614D61F2
:10171000C0B28D6161688142EED8002012E000BF46
:1017200000EB800104EBC10181F8695181F8680187
:1017300081F86B51C1F87851C1F87C51401CC0B29E
:10174000C1F8805161688142EAD814224146684656
:10175000FEF7FAFC94E80F0003F0DDF810B184F80E
:10176000A972A5E784F8245084F8A962206803F0E0
:10177000D0F800209DE7000008B500680B498842BA
:1017800012D10B48C16941F40001C161C069002256
:1017900000F40000009011461420FFF77FFBBDE825
:1017A00008401420FFF76CBB08BD0000005C00403F
:1017B0000010024070B5044680680125022801D05F
:1017C000FFF75EF92946D4F8EC0202F0A0FCD4F849
:1017D000EC02BDE8704002F05CBCD0F8EC0202F014
:1017E00080BCD0F8EC0202F086BC10B5044690F83C
:1017F000A80201280BD0012084F8A80284F8241044
:10180000206803F0BFFB002084F8A80210BD02206E
:1018100010BDD0F8EC2200F52C71104602F083BC0C
:1018200010B5044690F8A802012810D0012084F8D1
:10183000A802206803F047FB01212046FFF77EFB4A
:10184000206803F064F8002084F8A80210BD02208C
:1018500010BD000010B50446D0F8EC0202F0A2FC66
:10186000A069002804D00348016841F00601016026
:1018700010BD000010ED00E02DE9F84305460078AA
:10188000354CC00754D0E0690026C00008D4E06998
:1018900040F08050E061E069012600F08050009047
:1018A0002E480168C90512D40168804641F4807150
:1018B0000160FFF787FA074605E000BFFFF782FAED
:1018C000C01B642823D8D8F80000C005F6D5206ACC
:1018D00010F4407021D0A98801F4407181421CD0DD
:1018E000206A1F49012220F440700A6000220A6029
:1018F0002062C00711D0FFF765FA074641F2883829
:1019000008E000BFFFF75EFAC11B414502D9032082
:10191000BDE8F883206A8007F4D5206A696820F45E
:101920004070084320621EB1E06920F08050E06101
:101930002878800705D56068A96820F440400843EE
:1019400060602878C00605D56068E96820F48000EA
:10195000084360600020DBE7001002400070004098
:10196000400442422DE9F0470F46050061D0434E46
:10197000306800F00700B84209D2306820F0070054
:1019800038433060306800F00700B84251D1286811
:101990003B4C810712D5400703D5606840F4E060F6
:1019A00060602878000703D5606840F4605060608C
:1019B0006068A96820F0F000084360602878C007DC
:1019C00028D06868012810D02168022810D0890723
:1019D00000292EDA616821F0030101436160FFF7FD
:1019E000F1F9804641F288390DE021688903EFE77B
:1019F0008901EDE7FFF7E6F9A0EB0801494502D9B7
:101A00000320BDE8F0876068696800F00C00B0EB67
:101A1000810FEFD1306800F00700B8420BD9306871
:101A200020F0070038433060306800F00700B8420B
:101A300001D00120E5E72878400705D56068E9680E
:101A400020F4E060084360602878000706D56068ED
:101A5000296920F4605040EAC100606000F038F865
:101A60006168084AC1F30311515CC8400649086027
:101A700006480068FFF7C6F90020C2E700200240D0
:101A800000100240525700088C0000208400002003
:101A90000448054900684968044AC1F30221515CC1
:101AA000C84070478C0000200010024062570008B8
:101AB0000448054900684968044AC1F3C221515CE1
:101AC000C84070478C000020001002406257000898
:101AD0000E4A51680E4801F00C03042B11D0082B5C
:101AE0000FD10C48C1F38343C903C05C0AD55168C8
:101AF000084AC1F34041921E515C054A5043B0FB75
:101B0000F1F070470449484370470000001002405C
:101B100000127A004257000800093D002DE9F84FF5
:101B2000040070D02078C04DC00749D06868C0F369
:101B30008100012807D06868C0F38100022809D11C
:101B40006868C00306D52868800339D56068002816
:101B5000E7D035E06068B0F5803F0BD010B1B0F54C
:101B6000A02F11D0286820F480302860286820F445
:101B7000802002E0286840F480302860606890B1DE
:101B8000FFF720F906460AE0286840F48020286024
:101B9000F0E700BFFFF716F9801B642873D82868A8
:101BA0008003F7D50CE0FFF70DF9064605E000BF0E
:101BB000FFF708F9801B6428F0D828688003F7D461
:101BC00020789A4E80074FF001094FF0000839D570
:101BD000686810F00C0F07D06868C0F38100022815
:101BE00009D16868C00306D42868800714D5206925
:101BF000012808D110E02069B0B1C6F80090FFF7C5
:101C0000E1F8074605E00AE1FFF7DCF8C01B02280F
:101C1000C4D828688007F7D52868616920F0F800E3
:101C200040EAC10028600DE0C6F80080FFF7CAF85E
:101C3000074604E0FFF7C6F8C01B022823D828682F
:101C40008007F7D4207800072CD57948A169D9B14D
:101C5000C0F80090FFF7B6F8074604E0FFF7B2F8C7
:101C6000C01B02280FD8686A8007F7D571484FF467
:101C7000FA510068B0FBF1F0009000BF0098411EDF
:101C80000091FAD20EE080E0C0F80080FFF79AF8E9
:101C9000074604E0FFF796F8C01B022875D8686A6B
:101CA0008007F7D42078400760D5E8690027C00096
:101CB00008D4E86940F08050E861E869012700F045
:101CC000805000905C480168C90513D401688346C0
:101CD00041F480710160FFF775F8824606E000BFAD
:101CE000FFF770F8A0EB0A0064284ED8DBF800007C
:101CF000C005F5D5E06801280AD008B1052813D041
:101D0000286A20F001002862286A20F0040002E01E
:101D1000286A40F001002862E06841F2883B98B1EF
:101D2000FFF750F882460BE0286A40F00400286272
:101D3000EEE700BFFFF746F8A0EB0A0159455AD875
:101D4000286A8007F6D50CE0FFF73CF8824605E0EC
:101D5000FFF738F8A0EB0A0159454CD8286A8007EC
:101D6000F6D41FB1E86920F08050E861E06988B3DB
:101D70006968C1F38101022944D00228C6F8608055
:101D800004D0FFF71FF8044638E034E0FFF71AF8F4
:101D9000074604E0FFF716F8C01B02282BD8286876
:101DA0008001F7D4206AB0F5803F05D16868A1684A
:101DB00020F4003008436860D4E9080108436968EA
:101DC00021F4741108436860C6F86090FEF7FAFFCA
:101DD000044606E025E000BFFEF7F4FF001B0228E2
:101DE00009D828688001F7D51BE000BFFEF7EAFF9D
:101DF000001B022802D90320BDE8F88F2868800163
:101E0000F4D40EE00128F7D06868226A00F480312B
:101E1000914204D1616A00F47010884201D001201F
:101E2000EAE70020E8E7000000100240000042421C
:101E3000800442428C0000200070004010B5401E1B
:101E4000B0F1807F01D3012010BD4FF0E02460612C
:101E50000F21601703F0D4F80020A0610720206153
:101E6000002010BD7047704770B590F83C20012AE3
:101E700026D0012480F83C40022280F83D200368EF
:101E80005A689D6822F070060A6832435A600D4B0A
:101E900002689A4208D0B2F1804F05D00A4B9A42AC
:101EA00002D00A4B9A4204D1496825F080031943B5
:101EB000916080F83D40002180F83C10084670BDDC
:101EC000022070BD002C01400004004000080040CA
:101ED00010B5040003D094F83D0010B107E00120D4
:101EE00010BD002084F83C00204600F01FF80220BE
:101EF00084F83D00211D206801F004FB012084F8D6
:101F0000460084F83E0084F83F0084F8400084F8DE
:101F1000410084F8420084F8430084F8440084F8C7
:101F2000450084F83D00002010BD000008B50068A1
:101F3000B0F1804F12D10A48C16941F00101C1617D
:101F4000C069002200F00100009011461C20FEF73D
:101F5000A5FFBDE808401C20FEF792BF08BD0000A9
:101F60000010024090F83D10012901D00120704777
:101F7000022180F83D100168CA6842F00102CA607F
:101F800000680B49884208D0B0F1804F05D009495C
:101F9000884202D00849884204D1816801F00701D3
:101FA000062903D0016841F001010160002070475B
:101FB000002C0140000400400008004070B50446B9
:101FC00090F83C000025012817D0012684F83C60D9
:101FD000022084F83D002068826822F0770222F413
:101FE0007F4282600868502838D00DDC20284FD00E
:101FF00005DC90B3102811D14AE0022070BD3028D2
:1020000046D040280AD13BE060282FD070280DD060
:10201000B0F5805F03D0B0F5005F12D0012584F8E1
:102020003D60002084F83C00284670BDCB68D1E9B3
:102030000121206801F09CFA2068816841F0770155
:1020400009E0CB68D1E90121206801F091FA20680C
:10205000816841F480418160E1E719E0CA6849681C
:10206000206801F097FA5021206806E0CA684968A4
:10207000206801F0A0FA6021206801F083FACEE721
:10208000CA684968206801F085FA40212068F4E7B1
:10209000226801461046F0E7704770B504460068B4
:1020A00001694FF00005C943890715D4C168C943C8
:1020B000890711D4E91E0161012020772068806919
:1020C0008007204602D0FFF7E7FF04E000F098F811
:1020D000204600F096F8257720680169C943490732
:1020E00017D4C168C943490713D46FF004010161D3
:1020F000022020772068806910F4407F204602D0BB
:10210000FFF7CAFF04E000F07BF8204600F079F802
:10211000257720680169C943090716D4C168C943F6
:10212000090712D46FF008010161042020772068AC
:10213000C0698007204602D0FFF7AEFF04E000F040
:102140005FF8204600F05DF8257720680169C943F3
:10215000C90617D4C168C943C90613D46FF010016A
:102160000161082020772068C06910F4407F204674
:1021700002D0FFF791FF04E000F042F8204600F0A3
:1021800040F8257720680169C943C90708D1C168AB
:10219000C943C90704D1891E0161204600F032F805
:1021A00020680169C943090609D4C168C943090601
:1021B00005D46FF0800101612046FFF753FE2068CF
:1021C0000169C943490609D4C168C943490605D410
:1021D0006FF040010161204600F03EF8206801697F
:1021E000C94389060BD4C168C943890607D46FF077
:1021F000200101612046BDE87040FFF734BE70BD8C
:10220000704770470068B0F1804F21D1114800211C
:10221000012382783AB14269521C4261142A02D9E0
:1022200081704161438102793AB1C269521CC26135
:10223000142A02D90171C1614382C278002A07D0F1
:102240008269521C8261142A02D9C1708161C381E2
:102250007047000000000020704770477047000082
:10226000F8B5016804460868CA684B6910F00F0F9A
:102270004FF0000559D003F0010602F49077374380
:1022800065D0C10705D0D10503D5616C41F00101CE
:102290006164410705D5D90703D0616C41F00201A3
:1022A0006164810705D5D90703D0616C41F0040151
:1022B0006164010707D502F02001314303D0616C4E
:1022C00041F008016164616C00293AD0800604D5B0
:1022D000900602D5204601F0AFF920684069616C94
:1022E000C0F38010090700D460B3204601F07DF9E7
:1022F00020684069400621D52068143050E8001F4E
:1023000021F0400140E80012002AF5D1E06BA8B1AD
:102310006D494163E06BFEF7FDFB002811D0E06BD7
:10232000416B01B0BDE8F040084783060FD5930626
:102330000DD52046BDE8F84001F07EB92046FFF7F4
:102340008DFFF8BD2046FFF789FF6564F8BD266B59
:102350002023012E7CD1C6067AD5D60678D508680A
:102360004868009048694FF00206400640D5E16B8E
:10237000086840680004000CE8D0A28D8242E5D9CC
:10238000E085886920282DD020680C3050E8001F97
:1023900021F4807140E80012002AF5D12068143041
:1023A00050E8001F21F0010140E80012002AF5D199
:1023B0002068143050E8001F21F0400140E800126E
:1023C000002AF5D184F84230256320680C3050E8AB
:1023D000001F21F0100140E80012002AF5D1E06B47
:1023E000FEF774FB6663A08DE18D401A81B22AE08E
:1023F000A08DE18D401A81B2E08D0028A6D0002981
:10240000A4D022680C3252E8000F20F4907042E809
:102410000007002FF5D12068143050E8002F22F07B
:10242000010240E80027002FF5D184F842302563EF
:1024300020680C3050E8002F22F0100240E8002302
:10244000002BF5D166632046FFF707FFF8BDFFE7D5
:1024500005062BD5150629D594F841002128F5D17C
:10246000A068B0F5805F01D12069B0B1206A411C3D
:102470002162216800784860E08C401E0004000C56
:10248000E084E3D12068C16821F08001C160206848
:10249000C16841F04001C160D8E7206A0088C0F3FC
:1024A00008004860206A801C2062E5E74006CDD520
:1024B0005006CBD5CA68204622F04002CA6084F894
:1024C000413000F08EF9C1E7DB35000870B504003B
:1024D00004D094F84100002510B106E0012070BD41
:1024E00084F84050204600F023F8242084F841006E
:1024F0002068C16821F40051C160204601F0FEF857
:102500002068016921F4904101612068416921F04E
:102510002A0141612068C16841F40051C1606564CD
:10252000202084F8410084F842006563002070BDDB
:10253000F0B585B0002400940194029403940368DC
:10254000424F022042490322424D4602BB4225D15E
:102550008B6943F480438B618B6903F4804304935C
:102560008B6943F004038B618969039201F00401D4
:1025700004910102CDE9001069462846FEF728FBC8
:10258000CDE90064694628460294FEF721FB00224B
:1025900011462520FEF782FC252028E02E4FBB4265
:1025A00029D1CB6943F40033CB61CB6903F4003309
:1025B00004938B6943F004038B618969039201F0F2
:1025C000040104910421CDE9001069462846FEF774
:1025D000FFFA0820CDE90004694628460294FEF778
:1025E000F7FA002211462620FEF758FC2620FEF7B7
:1025F00047FC05B0F0BD194DAB42FAD1CB6943F4AD
:102600008023CB61CB6903F4802304938B6943F06F
:1026100008038B618969124D01F00801CDE903219E
:10262000CDE9006069462846FEF7D2FAE814CDE904
:102630000004694628460294FEF7CAFA00221146B1
:102640002720FEF72BFC2720D1E7000000380140AF
:1026500000100240000801400044004000480040D3
:10266000000C014090F84230202B01D0022070472E
:1026700021B11AB10023036301F09CB80120704717
:102680002DE9F04106460068254901270025254C23
:10269000884211D1A77065612089402805D2224A5D
:1026A00061791154401C208100E025811D490122DF
:1026B000491D1E48FFF7D6FF1D493068884214D1D6
:1026C000E770A561A1891B48B1F5007F06D21A4BBE
:1026D0000188A2795A54491C018000E00580114903
:1026E0000122891D1548FFF7BDFF15493068884252
:1026F00014D12771E561208A202806D20A4AE1799F
:1027000040321154401C208200E02582BDE8F04197
:1027100004490122C91D0B48FFF7A4BFBDE8F081A1
:102720000038014000000020BC01002064020020AD
:102730000044004090000020101B0020AC0200204C
:1027400000480040F40200202DE9F843044690F8C8
:1027500041001F4616460D46202802D00220BDE843
:10276000F8837DB176B100206064212084F84100B7
:10277000FEF728FBA6848046E684A068B0F5805F5B
:1027800002D003E00120EAE7206910B12E460025BF
:102790000EE000260CE08021204601F026F8A0B9CA
:1027A000AEB116F8010B21684860E08C401EE08451
:1027B000E08C43464FF0000200970028EBD14FF029
:1027C0004001204601F011F830B10320C7E735F889
:1027D000020BC0F30800E6E7202084F84100002047
:1027E000BDE77047FEE70000F0B500230A2430255E
:1027F00037261F4611E000BFB4EB107F02D905EB6E
:10280000107C01E006EB107C01F813C001EB430CD7
:1028100000015B1C8CF80170DBB29342ECD3F0BD7D
:1028200010B51CA21CA11D4802F0D6FB1B48FDF7E9
:10283000C1FC1B4C1BA218A160601848803002F03C
:10284000CBFB16488030FDF7B5FCA0607722184915
:102850001848FDF779FC1748FDF7ACFCE06011A2C1
:1028600015A11A4802F0B8FB40F25B72174918A094
:10287000226102F0A1FB09491AA002F09DFB074961
:102880001CA0803102F098FBBDE8104009491DA052
:1028900002F092BB6571300025730000101D00200E
:1028A000900000203866685651303632427A000077
:1028B000E8780008101E00206D717474732E68652E
:1028C000636C6F7564732E636F6D0000101F0020C2
:1028D000B7FE20CEF120C6F7A3BA25733A25640DC2
:1028E0000A000000BFCDBBA7B6CB4944A3BA2573ED
:1028F0000D0A0000D3C320BBA720C3FBA3BA2573D6
:102900000D0A0000C3DC20202020C2EBA3BA2573EF
:102910000D0A00002DE9F04786B0002535480095E6
:10292000019502950395816941F0100181618169EA
:1029300001F010010491816941F0200181618169F8
:1029400001F020010491816941F0040181618169F4
:1029500001F004010491816941F0080181618069FD
:10296000012200F00800DFF8908054030490214613
:102970004046FEF722FADFF88490002213214846F1
:10298000FEF71BFADFF878A06710002239465046A0
:10299000FEF713FA009401AA0124022682E87000CF
:1029A00069464046FEF714F90320CDE90004CDE95D
:1029B000024069464846FEF70BF91020CDE90004B5
:1029C000CDE9024669464846FEF702F9CDE90074B2
:1029D000CDE9024669465046FEF7FAF84FF47070AA
:1029E000CDE90005694602945046FEF7F1F806B0BD
:1029F000BDE8F087001002400010014000080140CF
:102A0000000C014010B586B00024164800940194D3
:102A10000294039404944FF080410594016047218F
:102A2000C0E9011440F2E731C0E903148461FFF703
:102A30004FFA08B1FEF724F84FF480500090694631
:102A40000848FFF7BBFA08B1FEF71AF8049404A986
:102A500004480594FFF708FA002801D0FEF710F8A3
:102A600006B010BD1C0200200C4810B50A490160D8
:102A70004FF4E1314160002181600C22C160C0E966
:102A800004128161C161FFF721FD002803D0BDE878
:102A90001040FDF7F5BF10BD003801406402002072
:102AA0000C4810B50A4901604FF4E1314160002142
:102AB00081600C22C160C0E904128161C161FFF72D
:102AC00005FD002803D0BDE81040FDF7D9BF10BDBB
:102AD00000440040AC0200200C4810B50A490160D7
:102AE0004FF416514160002181600C22C160C0E9A1
:102AF00004128161C161FFF7E9FC002803D0BDE841
:102B00001040FDF7BDBF10BD00480040F40200209A
:102B100010B500220F49104801F086F908B1FDF701
:102B2000AFFF0E490C4801F063FB08B1FDF7A8FFA9
:102B30000B49094800F08CFF08B1FDF7A1FF0648DA
:102B400001F0ACFB002803D0BDE81040FDF798BFB2
:102B500010BD0000200000203C0300208001002068
:102B600070000020FEE7FEE710B50B4C0122114675
:102B70002046FEF722F9012202212046FEF71DF928
:102B8000002202212046FEF718F920460022BDE867
:102B900010400121FEF711B90008014010B5094CA1
:102BA000012211462046FEF708F9002202212046A4
:102BB000FEF703F920460122BDE810400221FEF78E
:102BC000FCB800000008014010B5064C0122114677
:102BD0002046FEF7F2F820460022BDE81040012111
:102BE000FEF7EBB80008014070B5124E0446002213
:102BF00001213046FEF7E1F85FF0000504F08000A7
:102C0000802815D0002202213046FEF7D6F8600653
:102C1000040E012211463046FEF7CFF800220121B2
:102C20003046FEF7CAF86D1CEDB2082DE6D370BD34
:102C30000122E8E70008014010B50446FFF794FFC1
:102C40007820FFF7D1FFFFF7BFFF0020FFF7CCFF91
:102C5000FFF7BAFF2046FFF7C7FFFFF7B5FFBDE854
:102C60001040FFF79BBF10B50446FFF77DFF7820AB
:102C7000FFF7BAFFFFF7A8FF4020FFF7B5FFFFF708
:102C8000A3FF2046FFF7B0FFFFF79EFFBDE810400F
:102C9000FFF784BF30B40021084B0A465FF0000004
:102CA00003EBC004401CC0B262548028F8D3491C16
:102CB000C9B20829F2D330BC00F0B8B81015002012
:102CC00010B57F2816D83F2914D80723A3EBD103CA
:102CD00001F00701C1F107040121A140064CDBB25C
:102CE00004EBC000002AC25CC9B201D00A4300E074
:102CF0008A43C25410BD00001015002010B586B0E4
:102D0000002000900190029003904648816941F0B4
:102D1000080181618069444C00F0080004900022A1
:102D200003212046FEF749F803200121CDE90001E7
:102D30000220CDE9021069462046FDF749FF4FF415
:102D4000FA70FDF733FF0021AE2000F0B9F9002141
:102D5000022000F0B5F90021102000F0B1F90021A7
:102D6000402000F0ADF90021B02000F0A9F90021C9
:102D7000812000F0A5F90021FF2000F0A1F9002139
:102D8000A12000F09DF90021A62000F099F9002172
:102D9000A82000F095F900213F2000F091F90021D2
:102DA000C02000F08DF90021D32000F089F9002126
:102DB000084600F085F90021D52000F081F90021B6
:102DC000802000F07DF90021D82000F079F9002161
:102DD000052000F075F90021D92000F071F90021DB
:102DE000F12000F06DF90021DA2000F069F90021EE
:102DF000122000F065F90021DB2000F061F90021CC
:102E0000302000F05DF900218D2000F059F90021FB
:102E1000142000F055F90021AF2000F051F906B060
:102E200010BD0000001002400008014070B5104EB7
:102E30000024002104F1B00000F042F9002108460E
:102E400000F03EF90021102000F03AF95FF0000593
:102E500006EBC5000121005D00F032F96D1CEDB2FA
:102E6000802DF5D3641CE4B2082CE2D370BD0000C1
:102E7000101500202DE9FC4F1C460E4682468B465D
:102E80000190082B0DD0600700D0012000EBD4008A
:102E900061084843C0B28146203AD0B20090002079
:102EA0004BE00620F7E7082C13D00C2C18D0102C80
:102EB0001BD0182C44D10098234900EBC00000BF60
:102EC00001EB8001002711F80850E80712D00B9A97
:102ED00013E000981D4900EB400001EB4001F1E7D1
:102EE00000981B4900EB4000EAE71A49009801EB03
:102EF0000011E7E70B9828B3002231465046FFF750
:102F0000DFFE761C7F1C6D08FFB2F6B2082FDCD303
:102F10000AF1010000F0FF0A082C0AD00199AAEB7F
:102F20000100B0EB540F04D10BF108008A4600F009
:102F3000FF0B08F101005E46C0B280464845B2D39F
:102F4000BDE8FC8F0122D8E7F66300086A57000845
:102F500092590008065E00082DE9F8439846154688
:102F60000E4604460746DDF8209011E00A2A1AD0E2
:102F70000D2A0CD0434631462046CDF80090FFF78D
:102F800079FFB8F1080F12D004EB5800C4B26D1CE1
:102F90002A78A2F120005E28E8D90A2AE6D00D2A74
:102FA000E4D0BDE8F8830836F6B23C46EFE7A41D4E
:102FB000E4B2ECE72DE9FF4F81B081464FF0800B82
:102FC00073E0802A0ED2049800901023484602999C
:102FD000FFF750FF09F1080000F0FF090398401CBB
:102FE000039062E04FF00008C8EBC80000EB8001DE
:102FF00032480F18039897F820100078814246D184
:10300000039997F821004978884240D10025029819
:103010000024461917F815102BFA04F0014205D0C8
:1030200009EB0400F1B2C0B2049A06E00498D0B1F2
:10303000002209EB0400F1B2C0B2FFF741FE641CAC
:10304000E4B2082CE6D3002407EB450A2BFA04F07F
:103050009AF80110014208D009EB04000830F1B2DF
:10306000C0B2049A09E00122E3E7049820B30022E9
:1030700009EB04000830F1B2C0B2FFF721FE641C76
:10308000E4B2082CE2D36D1CEDB2102DBFD308F1D1
:1030900001001FFA80F8B8F12D0FA5D30398801C0A
:1030A000039009F1100000F0FF0903980278002A4C
:1030B00087D105B0BDE8F08F0122D9E7B2720008D0
:1030C000C0B209B1FFF7CFBDFFF7B6BD2DE9F84F8C
:1030D000044640F68F7B48F60F794FF480684FF036
:1030E000000AC0E1B0F8441011F00F0539D030F8F3
:1030F000256031047ED530F8251001EA0B0141F03E
:10310000800120F8251005EB850004EBC00797F837
:10311000740107F5B47700286DD0F87802286BD0D9
:103120003978226832F8210048F68F73184048F247
:10313000C003184322F821003978206830F8212094
:10314000B0F8503052047DD5022202EBC1015A186A
:1031500008EB4201415A8905890D009173D03A89E3
:10316000DFE0C9062DD4018801EA090141F40041DC
:103170000180206804F12805B0F850302978022237
:1031800002EBC1015A1808EB4201405AC0F3090092
:103190006064E16B0844E06300212046FDF7CFFE48
:1031A00094F8240000289CD0A869002899D194F8AC
:1031B0002400216840F08000A1F84C0084F824A08D
:1031C00051E1018804F5B4750A0521D5B0F8502005
:1031D0002B78062101EBC3010A4408EB4201405A57
:1031E00004F52C71C0F30903EB61EA88206801F053
:1031F000B1FE02E0B0E070E080E02068018801EA02
:103200000B0141F0800101802046FEF702FB2AE11C
:103210000904D5D5018801EA0B0141F08001018044
:103220002068B0F850202B78062101EBC3010A4436
:1032300008EB4201405A83059B0DEB6110D0696990
:1032400071B101E061E05FE0EA88206801F082FE90
:10325000E96968690844686100212046FDF778FE45
:10326000216808880205ABD4C0F301300328A7D039
:10327000B1F850000844B0F80C14C1F30901A0F8EB
:103280000C142A6900F20C403E2A09D95109D206D1
:1032900000D1491E02884FF4004343EA812109E02E
:1032A000B2B15108D20700D0491C02884FF6FF7313
:1032B00003EA81210A430280216808884BF68F7255
:1032C000104080F4405048F2800210430880CAE069
:1032D000018841F400410180EEE72068B0F85020F9
:1032E0003B78062101EBC3010A4408EB4201415A35
:1032F0008905890D009118D0FA8812E032463946C6
:103300002046FDF783FE00900FE0062202EBC1018C
:103310005A1808EB4201415A8905890D009104D0E1
:103320007A897969009B01F015FEF86900990844D3
:10333000F8617969009808447861B86918B1396909
:103340000098814204D939782046FDF701FE03E058
:103350003946206801F046FB30062FD505EB850085
:1033600004EBC001206830F8252002EA090242F48B
:10337000004220F8252091F82B00283101281ED08A
:10338000F0056CD42068B0F850300D78022202EBC2
:10339000C5021A4408EB4202805A8A69C0F3090048
:1033A000824255D9121A8A6154D04A6902444A614C
:1033B000CA691044C861206801F014FB53E0C1F8E9
:1033C00018A0087B524608B3700620D5487810B183
:1033D000012812D03AE02068B0F8502010440A7852
:1033E00000EB0210B0F80424C2F30902A0F8042490
:1033F000B0F8042442F4004206E02068B0F85030EF
:1034000018440B7800EB0310A0F804241EE04B785E
:10341000206813B1012B11D018E0B0F850201044EF
:103420000A7800EB0210B0F80C24C2F30902A0F8ED
:103430000C24B0F80C2442F4004205E0B0F85030FF
:1034400018440B7800EB0310A0F80C24097802E074
:10345000C1F818A0E9B22046FDF771FD03E032463D
:103460002046FDF746FE2068B0F8441009043FF5F9
:1034700039AE0020BDE8F88F70477047FDF7A8BC53
:1034800030B593B028216846FCF777FE14210AA8CE
:10349000FCF773FE002401200F9410941194010492
:1034A00012948DE8130004904FF4E010CDE9081059
:1034B000022507956846FEF731FB08B172B6FEE7B4
:1034C0000F20CDE90A054FF48060CDE90C400221C0
:1034D0000AA80E94FEF746FA08B172B6FEE710206D
:1034E0000F9012940FA8FEF7C7F9002801D072B60A
:1034F000FEE713B030BD70470148FEF7CEBD0000B7
:103500001C020020F0B50268164B174C174D4FF007
:103510008047984205D0B84203D0A04201D0A842CB
:1035200003D122F070064A683243984205D0B8426F
:1035300003D0A04201D0A84203D122F44074CA684B
:1035400022434C6922F08002224302608A68C262F0
:103550000A688262984201D10969016301214161CF
:10356000F0BD0000002C01400004004000080040B5
:1035700010B5846842EA032224F47F440A432243BC
:10358000826010BD826822F070020A4342F0070197
:103590008160704710B5036A046A24F00104046274
:1035A000846924F0F00444EA021423F00A020A4376
:1035B0008461026210BD10B5036A046A24F010042D
:1035C0000462846923F0A00324F4704444EA0232C4
:1035D00043EA01118261016210BD10B5406A002109
:1035E000C185C184FEF73AFE10BD01680C3151E877
:1035F000002F22F4907241E80023002BF5D10168DE
:10360000143151E8002F22F0010241E80023002B81
:10361000F5D1016B012909D101680C3151E8002F66
:1036200022F0100241E80023002BF5D1202180F880
:10363000421000210163704708B590F8421022291A
:1036400001D0022008BD82684FF480539A4201D114
:10365000016921B1816A9A421BD04AB10AE002682D
:10366000816A5268C2F308020A80816A891C08E0F4
:10367000026972B10268526802F07F020A70816AC0
:10368000491C8162C18D491E0904090CC18503D002
:103690001BE002685268F1E70168CA6822F0200264
:1036A000CA600168CA6822F48072CA6001684A6907
:1036B00022F001024A61202180F84210002141637A
:1036C000026B012A03D0FEF7DBFF002008BD016377
:1036D00001680C3151E8002F22F0100241E800236C
:1036E000002BF5D101680A68D20602D50A6849683C
:1036F0000091818DFEF7B1FDE7E7000070B504464B
:1037000000680169E26821F44051114301612169B7
:10371000A0680843616908432168CA6841F20C63E4
:103720009A430243CA6020684169A26921F440714A
:10373000114341611E492068884202D1FEF7B8F961
:1037400001E0FEF7A5F900EBC00101EB0012606893
:1037500064218000B2FBF0F3B3FBF1F36FF01806C5
:103760007343B2FBF0F5B2FBF0F605EB83053223B1
:1037700003EB0515B5FBF1F5B6FBF1F605F0F00529
:1037800005EB0615B2FBF0F6B2FBF0F0B0FBF1F082
:103790006FF01802504306EB800003EB0010B0FB03
:1037A000F1F0216800F00F002844886070BD00002F
:1037B0000038014081628285C28500214164222156
:1037C00080F84210016921B10168CA6842F4807230
:1037D000CA6001684A6942F001024A610068C16832
:1037E00041F02001C160002070472DE9F04198466A
:1037F00017460E460446069D27E0681C25D02DB1CD
:10380000FDF7E0FAA0EB0800A8421ED920680C30B2
:1038100050E8001F21F4D07140E80012002AF5D1D1
:103820002068143050E8001F21F0010140E8001228
:10383000002AF5D1202084F8410084F842000020BD
:1038400084F840000320BDE8F0812068006836EA73
:10385000000004D00020B842CFD00020F3E70120C0
:10386000F9E700000148FEF7FBBC000064020020FD
:103870000148FEF7F5BC0000AC0200200148FEF74D
:10388000EFBC0000F40200202DE9F041D0F8C03276
:10389000D0F8B822CAB101EB810500EB85040026FF
:1038A000E7693FB103EBC5039B6BB7FBF3F503FB84
:1038B000157323B1C2F814620020BDE8F081002323
:1038C0001A46E66100F077FCF6E70220F5E770B5EE
:1038D0000546D0F8B84200F072FBC4F80C02D5F8E7
:1038E000B80248B1D5F8BC12D4F80402CA6804F58D
:1038F00003719047002070BD022070BD70B5044672
:103900000026812100F0AEFA002501212046E56263
:1039100000F0A8FA82212046C4F86C5100F0A2FA07
:103920002564D4F8B80248B1D4F8BC0204F52E746A
:1039300040688047206800F00EFE2560304670BD6C
:1039400010B5D0E9AE4159B194F80002FF2807D074
:103950008B6894F8012221469847FF2084F80002E2
:10396000002010BD0A21018000487047A8000020F7
:103970004321018000487047F80000204321018066
:1039800000487047B4000020432101800048704780
:103990003C0100202DE9F04104460026007C4FF454
:1039A0000077012590B3402302228121204600F0B8
:1039B0005BFB4023E56202220121204600F054FB1C
:1039C0000823032282212046C4F86C5100F04CFBEE
:1039D0004FF40770256400F0BFFDC4F8B802F8B1D9
:1039E0000546D4F8BC02006880470020C5F81402E0
:1039F000C5F81802207CD5F8042298B14023012193
:103A0000204600F03DFB3046BDE8F081FFE73B4635
:103A100002228121204600F027FB3B46E562CAE7EF
:103A20000126F0E73B46EAE710B5D0F8B81269B1D5
:103A3000027C002AD1F8042205D04023012100F0A5
:103A40001FFB002010BD4FF40073F7E7022010BDEC
:103A500002460220002902D00020C2F8BC127047A2
:103A6000D0F8B802C0F8041200207047D0F8B802AD
:103A7000C0F81022C0F80812002070472DE9FC4160
:103A80000546D0F8B87200208DF80000ADF80400AB
:103A9000064608780C4610F0600121D020293BD161
:103AA000E288AAB10006607807D5D5F8BC128B6809
:103AB00039469847E288394626E087F80002A0791F
:103AC00087F80102E2883946284600F06AF828E0C3
:103AD000D5F8BC12607800228B682146984720E018
:103AE000607820B10A2809D00B2815D110E095F88C
:103AF0009C02032810D1022201A905E095F89C023E
:103B0000032809D101226946284600F064F808E03C
:103B100095F89C02032804D02146284600F036F888
:103B200002263046BDE8FC8110B5D0F8B812A1B12C
:103B3000D1F814220AB1012010BD0122C1F81422CB
:103B4000D1F810220263B1F8102293B2D1F8082202
:103B5000812100F030FB002010BD022010BD10B507
:103B6000D0F8B42252689047002010BD134610B51B
:103B70000A46002100F084FA002010BD134610B55B
:103B80000A46002100F017FB002010BD10B50446C6
:103B9000802100F0F5FA2046BDE81040002100F039
:103BA000EFBA10B50323C0F85C21C0F89432C0F816
:103BB000602113460A46002100F062FA002010BD81
:103BC00010B505210023C0F894121A46194600F0DA
:103BD00057FA002010BD10B50223C261C0F894321C
:103BE000026213460A46002100F0E5FA002010BDEB
:103BF00010B504210023C0F894121A46194600F0AB
:103C0000DAFA002010BD000010B50A46024903A0F0
:103C100000F0DAF8004810BD100B002043444320A8
:103C2000436F6E6669670000122008800048704785
:103C30004000002010B50A46024903A000F0C4F875
:103C4000004810BD100B002043444320496E7465AA
:103C500072666163650000000420088000487047B8
:103C60003C00002010B50A46024903A000F0ACF861
:103C7000004810BD100B002053544D6963726F65EE
:103C80006C656374726F6E696373000010B50A46E9
:103C9000024903A000F098F8004810BD100B002066
:103CA00053544D3332205669727475616C20436FE2
:103CB0006D506F727400000010B51A200880401813
:103CC00009D008220549FEF78FFD0449042210316E
:103CD0002046FEF789FD0148801E10BD56000020D9
:103CE000F8B504460020ADF8000048880D46010AEA
:103CF000082948D2DFE801F04704091747473C4547
:103D0000D4F8B012207C0A6819E0207C0226002832
:103D1000D4F8B40205D0C16A6846884701464670A7
:103D20003EE0816AF8E7C0B206282CD2DFE800F056
:103D3000030A1014181CD4F8B002426805E0694662
:103D400090471CE0D4F8B0028268E2B1207CF6E72C
:103D5000D4F8B002C268F8E7D4F8B0020269F4E718
:103D6000D4F8B0024269F0E7D4F8B0028269ECE717
:103D7000207C40B9D4F8B402416B684688470146BC
:103D80000EE0207C20B129462046FFF7FFFEF8BD5B
:103D9000D4F8B402016B6846884701460720487092
:103DA000BDF8000048B1EA8852B1824200D902460B
:103DB000ADF800202046FFF70EFFE8880028E6D186
:103DC0002046FFF715FFF8BD70B5002300281ED070
:103DD0000446002502E06D1CEDB2641C2678002E1E
:103DE000F9D1022404EB450414801278CA545B1CF8
:103DF0000322CA5400245B1C06E0CA545B1CDAB2DE
:103E00008C54521CD3B2401C0278002AF5D170BDEC
:103E100001004FF0000004D0012901D0022901D097
:103E2000022070470120704710B580B1D0F8B4323D
:103E300013B10023C0F8B43209B1C0F8B0120121A7
:103E400080F89C12027000F0BFF8002010BD022024
:103E500010BD10B5D0F8C002FDF7AAF8BDE81040BB
:103E6000FFF7D6BF10B5D0F8C002FDF77BF8BDE86C
:103E70001040FFF7CDBF2DE9F0411746044651B180
:103E8000D4F8B40242691AB194F89C02032851D0C4
:103E90000220BDE8F081D4F89432002504F114002A
:103EA000022B03D0042B3AD0C3B33CE0D0E9036328
:103EB0009E4207D9F11AC1608AB239462046FFF7FF
:103EC0005DFE12E08068B0FBF3F103FB110199B9CC
:103ED000984211D3D4F8981288420DD2002211468C
:103EE0002046FFF74BFEC4F8985200231A461946A5
:103EF000204600F0C5F816E0D4F8B402C16829B134
:103F000094F89C02032801D120468847802120464E
:103F100000F036F92046FFF753FE04E0FFE780216A
:103F2000204600F02DF994F8A002012804D184F86D
:103F3000A05201E0204690470020AAE770B5154640
:103F4000044649B1D4F8B40282691AB194F89C02CB
:103F5000032830D0022070BDD4F8941204F5AA7062
:103F6000032902D005291ED027E0D0E903218A4287
:103F70000BD9531AC3600846834200D303469AB252
:103F800029462046FFF7F2FD17E0D4F8B402016994
:103F900029B194F89C02032801D120468847204685
:103FA000FFF726FE09E000200146C4F894022046EF
:103FB00000F0E6F801E020469047002070BDD0F800
:103FC000C002FDF732BA000010B504461C481D4976
:103FD000C0F8EC42C4F8C00201600821416002212F
:103FE000816000218161C1610162FDF757FB08B169
:103FF000FCF746FD0022D4F8C0021823114604F550
:104000003074FCF77DFF5823002280212068FCF7E4
:1040100077FFC023002281212068FCF771FF4FF455
:104020008873002201212068FCF76AFF4FF4807337
:10403000002282212068FCF763FF002010BD0000F1
:1040400020080020005C00400A0601F07F01D0F843
:10405000C00201EB810100EBC10002D590F82A00FB
:10406000704790F86A01704710B51C461346D0F8A7
:10407000C0022246FDF7E2F9BDE81040FFF7C8BED6
:1040800010B5D0F8C002FDF706FABDE81040FFF702
:10409000BFBE70B50022044640231146FFF7E4FF7F
:1040A00040260125C4F86461334600228021204661
:1040B000C4F85851FFF7D8FF6662A56184F89C5296
:1040C0000020C4F894026060C4F8A402D4F8B802D6
:1040D00028B1D4F8B402002142682046904700205D
:1040E00070BD90F89C12042903D190F89D1280F8BD
:1040F0009C120020704710B590F89C12032904D13F
:10410000D0F8B412C96901B18847002010BD01740C
:104110000020704710B5D0F8C002FDF766FBBDE87F
:104120001040FFF775BE70B5044600F52A700546CD
:1041300000F04AF80120C4F89402B4F8AE02C4F8C2
:10414000980294F8A80210F01F010AD001290DD09E
:10415000022910D000F08001204600F011F8002064
:1041600070BD2946204600F09EF8F8E72946204613
:1041700000F0CAF9F3E72946204600F01DF9EEE702
:1041800010B5D0F8C002FDF79DF9BDE81040FFF76B
:104190003FBE10B5D0F8C002FDF742FBBDE81040AD
:1041A000FFF736BE90F89C1280F89D12042180F82B
:1041B0009C120020704710B5D0F8C002FDF7BBF983
:1041C000BDE81040FFF724BE0A7802704A784270BA
:1041D0008A78CB7802EB032242800A794B7902EB92
:1041E000032282808A79C97902EB0121C18070475C
:1041F0000246002011B1C2F8B41270470220704785
:1042000010B5D0F8B42202241AB11268904700B950
:104210000024204610BD000070B50E461E4D897862
:1042200004462970012931D894F89C0202280BD049
:1042300003280FD031462046FFF7A8FC29782046F6
:10424000BDE87040FFF78BBCD9B10320616084F8F2
:104250009C0209E071B16068884212D0C1B2204668
:10426000FFF77DFC297861602046FFF7C9FF02282F
:104270000CD006E0022084F89C0220466160FFF723
:104280006EFC2046BDE87040FFF7B2BC31462046C8
:10429000BDE87040FFF77ABCA400002010B5FFF71E
:1042A00078FF002010BD2DE9F0410A78002612F0B9
:1042B000600208D0202A01D0402A70D1D0F8B42260
:1042C000926890476DE04B78002201250A2B66D258
:1042D000DFE803F0405D6557650805652C29FFF7A9
:1042E000FFFC5EE004468888D8B9C888C8B9488809
:1042F000802816D200F07F0794F89C02032810D083
:1043000084F89E7239462046FFF704FF2046FFF7E7
:104310006FFC1FB1022084F89C0242E084F89C529A
:104320003FE020463BE0FFF777FF3AE0CB88012BE8
:1043300035D190F89C32012B04D0022B02D0032BF4
:104340002DD104E08260012200F1080116E0012273
:10435000011D13E090F89C22012A03D0022A01D00B
:10436000032A1CD1CA88022A19D1C560D0F8A41228
:1043700009B10321C160022200F10C01FFF72BFCFF
:104380000FE0498801290CD1C0F8A45211E090F83F
:104390009C32012B08D0022B06D0032B04D0FFF750
:1043A000F5FB3046BDE8F08149880129F9D1C0F814
:1043B000A422FFF71DFCF4E72DE9F0410A4604466C
:1043C00010780027097910F060030AD0202B01D063
:1043D000402B50D1D4F8B402114683682046984748
:1043E0008FE0C0F34110012806D05078D0B30128E7
:1043F0002AD003283FD107E0D4F8B40211468368DD
:104400002046BDE8F041184794F89C02022802D0EB
:10441000032872D10AE071B380296ED02046FFF7DD
:10442000AFFE80212046FFF7ABFE6AE0508838B926
:1044300031B1802904D0D08810B92046FFF7A0FE02
:104440002046FFF7D5FB5CE094F89C020228E2D0FE
:10445000032852D1508898BB4806F1D02046FFF778
:10446000F8FCEDE7FFE794F89C020026022803D051
:10447000032842D112E040E009B180293DD108066D
:1044800001F07F0000EB800004EB800101D51431C6
:1044900001E001F5AA7102220E602AE0080601F08F
:1044A0000F0000EB800004EB80000AD5806920B388
:1044B00001F07F0000EB800004EB800514350BE079
:1044C0001FE0D0F85801C0B101F07F0000EB800080
:1044D00004EB800505F5AA7541B1802906D0204678
:1044E000FFF7B2FD10B10120286000E02E6002222B
:1044F00029462046FFF76FFB03E011462046FFF7F1
:1045000045FB3846BDE8F08170B5054608780C4695
:1045100010F0600003D0202801D0402816D195F873
:104520009C02012803D0022801D003280ED1207953
:1045300001280BD8D5F8B402826828469047E18854
:10454000014306D12846FFF753FB02E02846FFF758
:104550001DFB002070BD704700487047000600201A
:104560002DE9F0470C78002630F8243048F68F12F9
:104570001340CA78002A78D0012A7CD0022A02D0BF
:10458000032A75D0012648F28002134320F8243014
:104590000D7830F8253048F68F7423402B431343B1
:1045A00020F825300D7B48F2C00948F6BF734CF265
:1045B000800A4BF68F77EDB3CD7891F800C0022DCD
:1045C00030F82C507DD048F68F6805EA0805154371
:1045D00020F82C50B0F8505091F800C0054405EB7D
:1045E0000C15B1F808C02CF0010CA5F800C4B0F807
:1045F000505091F800C0054405EB0C15B1F80AC005
:104600002CF0010CA5F808C44D78002D7ED00D7853
:1046100030F825C05FEA4C4C07D530F825C00CEACD
:10462000040C4CEA0A0C20F825C091F800C030F8C0
:104630002C5000E022E06D0606D530F82C502540C5
:1046400045EA090520F82C50CC780D78012C30F87B
:10465000254004EA03047CD084F02003134320F8AF
:104660002530C1E001E006E002E043F400738AE790
:1046700043F4C06387E743F4806384E74D784DB328
:10468000B0F850500F78054405EB0715CF8827F098
:104690000107A5F800740F7830F827506D0606D58D
:1046A00030F82750254045EA090520F82750CC78F6
:1046B000012C07D00C7830F82410194081F020012B
:1046C00004E064E00C7830F824101940114320F81D
:1046D000241090E0B0F850300D78034403EB05133C
:1046E000CD8825F00105A3F80854B0F850300D78B6
:1046F000034403EB0513B3F80C54C5F30905A3F801
:104700000C540D6903F20C433E2D00E045E00BD93B
:104710004FEA551CED0601D1ACF1010C1D884FF498
:10472000004848EA8C2C0BE035B34FEA550CED07F6
:1047300001D00CF1010C1D884FF6FF7808EA8C2C93
:1047400045EA0C051D800D7830F825305B0408D54E
:1047500000E046E030F82530234043EA0A0320F821
:104760002530097861B130F821303B4083F40053A3
:10477000134320F821303EE01D8845F40045E1E771
:104780000188394081F440511143018033E02540D4
:1047900048F2801845EA08051AE791F800C030F899
:1047A0002C506D0406D530F82C50254045EA0A05FA
:1047B00020F82C5091F800C030F82C506D0606D52A
:1047C00030F82C50254045EA090520F82C500D788A
:1047D00030F825403C4084F44054144320F82540F0
:1047E00070E7144320F825400B7830F82310394047
:1047F000114320F823103046BDE8F08700207047B1
:104800002DE9F04391F80C804F780A7848F6BF7C88
:104810004BF68F7948F2800348F2C0054CF28006CF
:1048200048F68F74B8F1000F28D0002F30F82270AE
:104830004FEA474748D0002F05DA30F8227027406A
:10484000374320F822700A7830F822707F0605D5A9
:1048500030F8227027402F4320F822700D7830F86E
:1048600025202240324320F825200C7830F82420DF
:1048700002EA0C021A4320F824201AE07FB130F833
:104880002260760605D530F8226026402E4320F8B7
:1048900022600A7830F8221001EA0C010EE030F8AC
:1048A00022506D0405D530F822502540354320F8BC
:1048B00022500A7830F8221001EA0901194320F841
:1048C00022100020BDE8F083002F05DA30F82270B6
:1048D0002740374320F822700A7830F822607606A5
:1048E00005D530F8226026402E4320F822600E784D
:1048F00030F8262022402A4320F826200C7830F871
:10490000242002EA09021A4320F82420C1E70020EB
:10491000704700207047012120F8401F00210180CE
:10492000818001820846704730F8401F21F43F41E2
:104930000180002070470020704730B50A7BB2BB71
:104940004A7848F68F7548F28004C2B10B7830F887
:104950002320520607D530F823202A4048F2C0050C
:104960002A4320F82320CA78012A20D00A7830F878
:10497000221048F6BF73194081F0200114E00A7834
:1049800030F822305B0407D530F822302B404CF24F
:1049900080052B4320F822300A7830F822104BF69D
:1049A0008F73194081F44051214320F822100020D8
:1049B00030BD10B54A780978002A48F2800330F8F3
:1049C000212005D048F6BF74224082F0100204E096
:1049D0004BF68F74224082F480521A4320F8212033
:1049E000002010BD2DE9F0470D464B78097B0446A9
:1049F0004FF0000948F68F7248F2800A4FF40047E2
:104A00004FF6FF78012B09D000296FD0E8780228F3
:104A10006DD001286CD00120BDE8F087AE6928690F
:104A2000864200D9064691B1E97802291ED0286A4B
:104A3000801B2862287834F820104906B4F85010FA
:104A4000214401EB001073D5A0F80C6416E1B3B259
:104A5000EA882046696900F09BFAB4F8500029788A
:104A6000204400EB0110A0F804640DE1296A8142A2
:104A700077D9297834F82100104048F28012104389
:104A800024F82100286A801B2862287834F8201036
:104A90004906697871D511B101292AD030E0B4F8FE
:104AA0005010214401EB0010B0F80C14C1F30901BF
:104AB000A0F80C1400F20C403E2E07D97109F20642
:104AC00000D1491E028847EA812107E04EB17108F2
:104AD000F20700D0491C028808EA81210A430280BB
:104AE0000EE0018841F40041018009E0F1E020E19D
:104AF00095E1B4F85020111901EB0010A0F80C64F6
:104B00006A89B3B22046696900F042FA68693044A4
:104B100068612969286A884202D9801B286202E0FC
:104B20000646C5F82090687818B101282BD032E0ED
:104B30002FE0B4F850002978204400EB0110B0F8C1
:104B40000414C1F30901A0F8041400F204403E2E3D
:104B500008D97109F20600D1491E028847EA81216D
:104B600008E0A1E056B17108F20700D0491C0288A4
:104B700008EA81210A4302800DE00EE0018841F439
:104B80000041018007E0B4F850002978204400EB90
:104B90000110A0F804642A8971E011B1012927D01D
:104BA0002DE0B4F85010214401EB0010B0F80414CB
:104BB000C1F30901A0F8041400F204403E2E07D905
:104BC0007109F20600D1491E028847EA812107E0F7
:104BD0004EB17108F20700D0491C028808EA812111
:104BE0000A4302800BE0018841F40041018006E0A5
:104BF000B4F85010214401EB0010A0F804642A8995
:104C0000B3B22046696900F0C3F96869304468614D
:104C10002969286A884202D9801B286202E0064678
:104C2000C5F82090687810B1012836D026E0B4F895
:104C300050002978204400EB0110B0F80C14C1F3A7
:104C40000901A0F80C1400F20C403E2E07D971099E
:104C5000F20600D1491E028847EA812107E04EB1E1
:104C60007108F20700D0491C028808EA81210A4332
:104C7000028003E0018841F4004101806A89B3B2F7
:104C80002046696900F084F9297834F8210048F653
:104C9000BF72104080F030000FE1B4F850100819D6
:104CA000297800EB0110CFE62A7834F8220048F684
:104CB0008F63184040EA0A0024F82200B4F850003C
:104CC0002A78204400EB02108BB2A0F804342A8921
:104CD000D6E7A9692869814202D9091AA96102E0C7
:104CE0000846C5F81890B4F850102A78214401EB12
:104CF0000211B1F80C24C2F30902A1F80C2401F24C
:104D00000C413E287DD94209C00600D1521E0888B8
:104D100047EA82220AE0088840F4004007E042089F
:104D2000C00700D0521C088808EA8222104308807D
:104D3000BBE033BBB4F850002978204400EB0110ED
:104D4000B0F80414C1F30901A0F80414296900F2B1
:104D500004403E2907D94B09C90600D15B1E0188D2
:104D600047EA832307E041B14B08C90700D05B1C29
:104D7000018808EA8323194302E0018841F40041D5
:104D80000180687810B1012828D030E0B4F85000D4
:104D90002978204400EB0110B0F80C14C1F309018C
:104DA000A0F80C14296900F20C403E2907D94B09E0
:104DB000C90600D15B1E018847EA832307E041B1A1
:104DC0004B08C90700D05B1C018808EA83231943FC
:104DD00002E0018841F40041018008E0B4F850107D
:104DE0000819297800EB0110298AA0F80C14E86949
:104DF000C0B3297834F82100430401D5430605D413
:104E000000E046E044F2400318424ED134F821005D
:104E1000104048F2C002104324F8210045E0A9697F
:104E20002869814202D9091AA96102E00846C5F839
:104E3000189013BBB4F850102A78214401EB0211EA
:104E4000B1F80424C2F30902A1F8042401F20441D8
:104E50003E2808D94209C30600D1521E0B8847EAF2
:104E6000822208E021E078B14208C30700D0521C3A
:104E70000B8808EA822213430B80697800293FF4EB
:104E80002EAF012909D010E00A8842F400420A80BE
:104E9000F3E700287FF443AF3DE7B4F85020111941
:104EA0002A7801EB0211A1F80C04297834F82100CA
:104EB0004BF68F72104080F4405040EA0A0024F80C
:104EC00021000020A8E50021A0F844104FF43F4144
:104ED000A0F84010002070470148FCF745BB0000D7
:104EE0002008002030B5174885B0816941F00401E1
:104EF00081618069144D00F004004FF480540490E7
:104F0000002221462846FBF758FF01200221009489
:104F1000CDE90101039169462846FBF759FE0022BD
:104F200021462846FBF749FF4120FBF73FFE0122BF
:104F300021462846FBF741FF4120FBF737FE05B02D
:104F400030BD00000010024000080140B0F84400ED
:104F50007047000010B500EB42005C0800F580606F
:104F600009D000BF30F8042B01F8012B120A01F818
:104F7000012B641EF6D1DA0701D00088087010BD3D
:104F80000020704711B98021A0F84C100020704714
:104F900010B55B1C00EB42005B0800F5806009D097
:104FA00011F8012B11F8014B42EA042220F8042BDE
:104FB0005B1EF5D110BDFEE70FB4054B10B503A97C
:104FC000044A029800F03CF810BC5DF814FB0000A5
:104FD0000B530008B80100200FB4084B10B504A90A
:104FE00002AA039800F02CF8044602A9002000F061
:104FF00087F9204610BC5DF814FB0000015300083F
:105000000907090E002804DB00F1E02080F80014F5
:10501000704700F00F0000F1E02080F8141D704789
:1050200002E008C8121F08C1002AFAD17047704771
:10503000002001E001C1121F002AFBD170470000CF
:105040002DE9FF4F8DB09B460F460446002606E033
:1050500025280BD05A460F999047641C761C20785F
:105060000028F5D111B03046BDE8F08F0025A846E4
:105070000122984900E0054314F8013F203B02FA61
:1050800003F00842F7D120782E2817D114F8010F29
:1050900045F004052A280ED06FF02F022078A0F1E9
:1050A000300109290AD808EB880102EB410100EB25
:1050B0000108641CF2E757F8048B641C20786C2804
:1050C0000DD004DC4C2812D06A2811D104E07428D9
:1050D0000DD07A280CD10AE045F4001507E061787C
:1050E00045F48015814202D1641C05F58015641CCD
:1050F0002078692844D008DC0028B3D0582867D02D
:1051000063280FD0642808D13AE0702865D073284E
:1051100012D075285AD078285AD05A460F999047FD
:10512000761CD5E017F8040B8DF8000000208DF8F0
:105130000100E946012003E057F8049B4FF0FF30DF
:1051400069074FF0000501D40AE06D1C45450DDAF2
:105150008542FADB19F805100029F6D106E06D1C2E
:105160008542FCDB19F805100029F8D12E4404E033
:1051700019F8010B5A460F9990476D1EF8D2A7E017
:105180000A200021CDE90801C5F3025002280CD005
:1051900001CFC117021E71F100020CDA0023D0EB1F
:1051A000030063EB01012D2208E0FF1D27F0070734
:1051B000F7E80201EEE72A0504D52B228DF8282016
:1051C00001223CE0EA073AD02022F7E70A2000E07B
:1051D00010200021CDE9080107E01020002145F052
:1051E0000405CDE908014FF00808C5F30250022874
:1051F00010D001CF00214FF0000A2A0720D52278D5
:10520000702A0DD0DDE908C38CF0100C5CEA030CA9
:105210000CD015E0FF1D27F00707F7E80201EAE7C9
:1052200040228DF828204FF0010A0CE050EA0103DB
:1052300006D030238DF828308DF82920022292469E
:105240002278582A04D024A20DF120090B9209E0FB
:1052500026A2F9E7DDE90823FAF7B3FF0B9B9B5C75
:1052600009F8013D50EA0102F4D1ADEB090020300C
:105270000890680701D44FF001080899884503DDBC
:105280000898A8EB000000E000208046002506E01A
:105290000AA85A46405D0F9990476D1C761C5545EB
:1052A000F6DB04E030205A460F999047761CB8F19F
:1052B0000001A8F10108F5DC05E019F8010B5A46D8
:1052C0000F999047761C0899481E08900029F4DC35
:1052D000641CC4E6092801003031323334353637D6
:1052E0003839616263646566000000003031323332
:1052F00034353637383941424344454600000000D2
:105300000A68531C0B601070704713B54FF47A7421
:1053100000E0641E01216846FAF7F4FF012801D17C
:10532000002CF6D100201CBD10B50446FBF74AFD49
:10533000001B10BDC4B04FF0000AFBF751FDFFF792
:10534000D1FDFEF79DF8FDF7E5FAFDF75BFBFDF7F4
:105350008BFBFDF7C1FBFDF7A3FBFDF7D9FBFDF7C9
:10536000CDFCFDF797FC1023B7A200211846FDF7EE
:1053700021FEFDF75BFD0122B649B748FDF772F942
:10538000B4490122491CB548FDF76CF9B149012225
:10539000891CB348FDF766F9B248FCF7E3FDFDF759
:1053A0003FFA0020FAF7C6FFAA4CAF4EDFF8BC92D6
:1053B00000254FF47A784FF480774FF0010B641F8B
:1053C0005046FFF7B1FF40450ED9FBF7FBFC824684
:1053D000207818B1401E2070012200E000224FF416
:1053E00080513046FBF7E9FC39463046FBF7E0FCDC
:1053F00050B180213046FBF7DBFC80B140213046C4
:10540000FBF7D6FCB0B12AE06420FBF7CFFB3946AE
:105410003046FBF7CDFC0028F9D095A114E06420BC
:10542000FBF7C4FB80213046FBF7C2FC0028F9D013
:1054300091A109E06420FBF7B9FB40213046FBF75E
:10544000B7FC0028F9D08EA14FF6FF73D1E9000117
:10545000CDE94101082241A97F48FDF775F960892E
:10546000012875D1658199F800104846EF2909D1C6
:105470004178AA29FBD1C179122904D013296AD015
:10548000212967D0AEE0017A002951D199F80600B0
:1054900002284DD9FDF7FEFB012211033046FBF730
:1054A0008CFC102378A219460020FDF783FD99F8A3
:1054B0000A3099F8092077A101A8FFF78DFD01A80E
:1054C000FAF778FE82B24FF6FF7301A96448FDF740
:1054D0003BF999F80A3099F8092073A101A8FFF760
:1054E0007BFD102301AA20210020CDF800B0FDF79C
:1054F00033FDFDF79BFC4FF4FA60FBF757FBFDF71C
:10550000C9FB102350A200211846FDF753FDFDF7FB
:105510008DFC99F80A1099F8090001EB002264A1AA
:1055200001A8FFF759FD01A96CA0FBF72FF959E07D
:10553000FDF7B0FB102373A219460020FDF73AFDDA
:105540004FF6FF7308226FA14548FDF7FDF827E0ED
:105550004DE000E04FE0017A29BB99F806000228EF
:1055600021D9FDF797FB102369A219460020FDF70A
:1055700021FD4FF6FF73082265A13948FDF7E4F8D5
:1055800099F80A3099F8092047A101A8FFF724FDEE
:10559000102301AA20210020CDF800B0FDF7DCFC8B
:1055A000FDF744FC10E0FDF775FB10235BA21946E4
:1055B0000020FDF7FFFCFDF739FC4FF6FF730822D2
:1055C00056A12748FDF7C0F84FF4FA60FBF7EEFA52
:1055D000FDF760FB10231CA200211846FDF7EAFC32
:1055E000FDF724FC20212148FAF7C7FD2581608AB8
:1055F000012810D016E0017A0029F3D199F80600AD
:105600000228EFD1FDF746FB102347A219460020E0
:10561000FDF7D0FCC4E71548658220214030FAF739
:10562000ACFD2582E08901287FF4CAAEE5814149BD
:105630004148FFF7C1FC4FF400713E48FAF79DFD69
:105640003E480580BCE60000D6C7C4DCC3C5BDFB30
:10565000000000000500002064020020AC020020D1
:10566000F40200201C020020000C0140BC010020BC
:10567000EFAA120000000012EFAA130000000013AE
:10568000EFAA210000000021D1E9D6A4B3C9B9A630
:1056900000000000D1E9D6A4B3C9B9A62C49443A08
:1056A000257825780000000049443A2578257800BF
:1056B0007B226964223A2231222C22706172616D50
:1056C00073223A7B226D796964223A7B2276616C7F
:1056D0007565223A25647D7D7D0000002473797311
:1056E0002F3866685651303632427A2F6571302F26
:1056F0007468696E672F70726F70657274792F703D
:105700006F737400D1E9D6A4CAA7B0DC0000000012
:10571000D7A2B2E1B3C9B9A600000000D7A2B2E196
:10572000CAA7B0DC00000000C9BEB3FDB3C9B9A66A
:1057300000000000101B0020A0780008900000204E
:10574000010202030405060708090A0B0C0D0E0FDF
:105750001010000000000000000001020304060712
:10576000080900000000010203040000000000001E
:105770000000002F000000000700070000147F1445
:105780007F1400242A7F2A12006264081323003643
:105790004955225000000503000000001C22410072
:1057A000000041221C000014083E08140008083EB6
:1057B0000808000000A060000008080808080000B1
:1057C00060600000002010080402003E5149453E80
:1057D0000000427F4000004261514946002141459E
:1057E0004B31001814127F10002745454539003C05
:1057F0004A494930000171090503003649494936D3
:1058000000064949291E00003636000000005636C1
:1058100000000008142241000014141414140000A5
:105820004122140800020151090600324959513E33
:10583000007C1211127C007F49494936003E4141EB
:105840004122007F4141221C007F49494941007F9C
:1058500009090901003E4149497A007F0808087F8B
:105860000000417F4100002040413F01007F0814BB
:105870002241007F40404040007F020C027F007FB9
:105880000408107F003E4141413E007F090909069E
:10589000003E4151215E007F0919294600464949D1
:1058A00049310001017F0101003F4040403F001F9E
:1058B0002040201F003F4038403F0063140814631D
:1058C00000070870080700615149454300007F4107
:1058D000410000552A552A55000041417F0000042F
:1058E0000201020400404040404000000102040068
:1058F000002054545478007F4844443800384444CD
:10590000442000384444487F003854545418000858
:105910007E0901020018A4A4A47C007F0804047876
:105920000000447D4000004080847D00007F1028FE
:1059300044000000417F4000007C04180478007C93
:105940000804047800384444443800FC2424241813
:105950000018242418FC007C08040408004854544F
:10596000542000043F444020003C4040207C001C68
:105970002040201C003C4030403C0044281028447B
:10598000001CA0A0A07C004464544C4414141414C3
:1059900014140000000000000000000000000000DF
:1059A000FC000000000002000000000C020C0200DD
:1059B00000000000000090D0BCD0BC9000030003A9
:1059C00000001824FE448C00030207020100182482
:1059D000D8B04C80000300010201C038E438E00078
:1059E000010202010202080600000000000000009F
:1059F0000000000000F804020000000102040002A0
:105A000004F800000004020100009060F8609000BB
:105A10000000010000002020FC2020000000010008
:105A20000000000000000000080600000000202028
:105A30002020200000000000000000000000000006
:105A40000002000000000080601C0200040300004F
:105A50000000F8040404F80001020202010000083A
:105A6000FC00000000020302000018844424180017
:105A700003020202020008042424D80001020202E8
:105A8000010040B088FC80000000000302003C24BC
:105A90002424C400010202020100F824242CC000C6
:105AA0000102020201000C04E41C040000000300D7
:105AB0000000D8242424D800010202020100384446
:105AC0004444F8000003020201000000100000003E
:105AD000000002000000000020000000000006009E
