:020000040800F2
:10000000380900201502000875200008750900084D
:100010005D110008E1060008A32A000800000000A6
:10002000000000000000000000000000B1220008F5
:100030000D07000800000000192100089D2300089A
:100040002F0200082F0200082F0200082F020008CC
:100050002F0200082F0200082F0200082F020008BC
:100060002F0200082F0200082F0200082F020008AC
:100070002F0200082F0200082F0200082F0200089C
:100080002F0200082F0200082F0200082F0200088C
:100090002F0200082F0200082F0200082F0200087C
:1000A0002F0200082F0200082F0200082F0200086C
:1000B0002F0200082F0200082F0200082F0200085C
:1000C0002F0200082F0200082F0200082F0200084C
:1000D0002F020008012800082528000841280008F0
:1000E0002F0200082F0200082F0200082F0200082C
:1000F0002F0200082F0200082F0200082F0200081C
:100100002F0200082F0200082F0200082F0200080B
:100110002F0200082F0200082F0200082F020008FB
:100120002F0200082F0200082F0200082F020008EB
:1001300000F002F800F05FF80AA090E8000C82449A
:100140008344AAF10107DA4501D100F054F8AFF277
:10015000090EBAE80F0013F0010F18BFFB1A43F0A5
:10016000010318470C5500002C5500000A444FF0BD
:10017000000C10F8013B13F0070408BF10F8014B06
:100180001D1108BF10F8015B641E05D010F8016B4B
:10019000641E01F8016BF9D113F0080F1EBF10F8AF
:1001A000014BAD1C0C1B09D16D1E58BF01F801CBD2
:1001B000FAD505E014F8016B01F8016B6D1EF9D555
:1001C0009142D6D37047000000230024002500266A
:1001D000103A28BF78C1FBD8520728BF30C148BFAA
:1001E0000B607047642900F07580002070471FB5D0
:1001F0001FBD10B510BD00F031FA1146FFF7F7FF33
:1002000000F05CFA00F04FFA03B4FFF7F2FF03BC12
:1002100002F050FC0948804709480047FEE7FEE726
:10022000FEE7FEE7FEE7FEE7FEE7FEE7FEE7FEE7A6
:1002300004480549054A064B70470000E5230008BD
:10024000310100083803002038090020380500205B
:1002500038050020704700000FB41CB5084B06AAF3
:100260007B4469460090059800F0B9F904460020E7
:10027000694600F0C7F920461CBC5DF814FB00007D
:10028000A103000070B5044685690068C10601D568
:10029000302600E02026C00707D070BDD4E9012138
:1002A00030469047206A401C20626D1EF6D570BD16
:1002B00070B5044685690078C00707D170BDD4E9E0
:1002C000012120209047206A401C20626D1EF6D537
:1002D00070BD00002DE9F041064600241068752924
:1002E000314616A510D0AFF30080002802DA404254
:1002F00013A507E031688A0701D512A502E0490776
:1003000004D511A5012401E0AFF3008000210A22E9
:1003100006F1240709E0B0FBF2FCB0FBF2F302FBAC
:100320001C00303078541846491C0028F3D123466D
:100330002A463046BDE8F04100F0F2B80000000067
:100340002D0000002B000000200000002DE9F05FD0
:10035000894604464FF0000ADFF874B1FB44C0F848
:1003600020A02046E1688847002874D0252806D0C0
:10037000D4E901219047206A401C2062F1E7002661
:100380005F462046E16888472028054607DB312D77
:1003900005D2781910F8200C08B10643F1E7B00730
:1003A00001D526F00406C4F81CA00027C4F818A044
:1003B0002A2D09D0284602F076FB38B304EB8708D3
:1003C000303DC8F8185019E059F8041B204604EBDA
:1003D00087029161E1688847012F054618D1E069DD
:1003E000002820DA26F020061DE0D8F8180000EBDF
:1003F000800005EB40003038C8F818002046E1685E
:100400008847054602F04FFB0028EED1012F0AD0A5
:100410002E2D08D12046E16888477F1C0546022F13
:1004200046F02006C4DBA069002803DA404246F00B
:100430000106A061F00701D026F010066C2D0BD04C
:10044000682D09D04C2D39D06A2D35D0742D35D07A
:100450007A2D33D016E038E0E1682F4620468847F1
:10046000B842054609D16C2F26D04FF48060E16870
:10047000064320468847054604E06C2F1AD04FF407
:10048000807006430DB3A5F14100192802D820352C
:1004900046F400664A462946204626604E46FFF747
:1004A000A1FE80B101280BD0F61D26F0070000F157
:1004B000080956E74020E4E78020D8E70020D6E787
:1004C00006F104094DE7284652E7206ABDE8F09F8F
:1004D000B85200004FF000020429C0F0128010F062
:1004E000030C00F09680CCF1040CBCF1020F18BF95
:1004F00000F8012BA8BF20F8022BA1EB0C0100F0A3
:1005000088B85FEAC17C24BF00F8012B00F8012BFA
:1005100048BF00F8012B704770477047704770471D
:100520002DE9F0470D4699469246044600F124080D
:100530000168880604D5E06921F01001216000E01F
:100540000120A84201DD471B00E00027A1697A19BC
:1005500002EB0900081AA0612078C00602D42046E8
:10056000FFF790FE002608E0D4E901211AF8060002
:100570009047206A401C761C20624E45F4DB2078B0
:10058000C0060AD52046FFF77DFE06E0D4E901212A
:1005900030209047206A401C2062381EA7F10107D6
:1005A000F4DC07E0D4E9012118F805009047206A3F
:1005B000401C2062281EA5F10105F3DC2046FFF750
:1005C00077FE2078000602D50220BDE8F0870120E2
:1005D000FBE7000001694A1C02610878704700B51A
:1005E0008FB0CDE901310021059105497944CDE96C
:1005F000031011466846FFF7A9FE0FB000BD0000CA
:10060000E5FFFFFF0A6802F8010B0A6070474FF030
:10061000000200B5134694469646203922BFA0E852
:100620000C50A0E80C50B1F12001BFF4F7AF09075E
:1006300028BFA0E80C5048BF0CC05DF804EB89004F
:1006400028BF40F8042B08BF704748BF20F8022B92
:1006500011F0804F18BF00F8012B7047754600F06D
:1006600029F8AE4605006946534620F00700854646
:1006700018B020B5FFF7DCFDBDE820404FF00006C4
:100680004FF000074FF000084FF0000B21F007017A
:10069000AC46ACE8C009ACE8C009ACE8C009ACE8BD
:1006A000C0098D4670470446AFF300802046FFF72F
:1006B000ABFD000000487047D402002010B501F0E7
:1006C000DAFC01F053FB00F00DF802F08BFA002089
:1006D00010BD0000014908607047000000860D420F
:1006E00000BFFEE70748006840F0807005490860D9
:1006F0000020054948600846006840F00100086095
:1007000070470000FCED00E0001000E070472DE9AC
:10071000F041024600250026002000230024002787
:1007200091F803C00CF00F0591F803C00CF0100C09
:10073000BCF1000F03D091F802C04CEA050591F816
:1007400000C0BCF1000F31D0146800202BE04FF046
:10075000010C0CFA00F3B1F800C00CEA03069E424B
:1007600020D183004FF00F0C0CFA03F7BC4305FABD
:1007700003FC4CEA040491F803C0BCF1280F06D135
:100780004FF0010C0CFA00FCC2F814C00AE091F81A
:1007900003C0BCF1480F05D14FF0010C0CFA00FC6E
:1007A000C2F810C0401C0828D1D31460B1F800C0B2
:1007B000BCF1FF0F34DD546800202EE000F1080C7E
:1007C0004FF0010808FA0CF3B1F800C00CEA030678
:1007D0009E4221D183004FF00F0C0CFA03F7BC436B
:1007E00005FA03FC4CEA040491F803C0BCF1280F9D
:1007F00005D100F1080C08FA0CF8C2F8148091F841
:1008000003C0BCF1480F07D100F1080C4FF00108FC
:1008100008FA0CF8C2F81080401C0828CED35460A7
:10082000BDE8F081F0B50A46002300240021002530
:1008300000F00046B6F1004F02D11D4EF16901E013
:100840001B4E7168C0F3034583B200F44016B6F541
:10085000401F08D121F07061154E766826F0706651
:10086000134F7E6012E000F48016B6F5801F06D1AB
:10087000032606FA05F4A14341F0706106E0460D37
:10088000360103FA06F6B14341F0706122B1460D1C
:10089000360103FA06F6314300F00046B6F1004F88
:1008A00002D1034EF16101E0014E7160F0BD000024
:1008B0000000014038B504460D462211042101FA1A
:1008C00002F0012101F04AFC03208DF80200132CF4
:1008D00003D0142C01D00F2C08D10121084601F0BF
:1008E0003DFC01212048FFF79DFF2BE00D2C01D09E
:1008F0000E2C08D10121084601F030FC01211B48D3
:10090000FFF790FF1EE02D2C10D10121084601F0C9
:1009100025FC012001F0FAFB0020FFF7DBFE0020A0
:1009200001F0F4FB02208DF802000BE0302C01D026
:10093000312C07D10121084601F010FC0121C80328
:10094000FFF770FF04F00F010120884080B2ADF87E
:1009500000008DF803502111054A131503FB0120F7
:100960006946FFF7D4FE38BD0002300000043000B5
:100970000008014000BFFEE7014601208840074A09
:100980001278104038B101208840054A1278104092
:1009900008B1012070470020FCE700003D00002066
:1009A0003C00002070B506460F484088401E83B2C8
:1009B0000D480088401E82B20021084600F002FA6D
:1009C00000240CE0002504E0304600F055FB681CD4
:1009D00085B205480088A842F6DC601C84B2024853
:1009E0004088A042EEDC70BDCC01002010B5002094
:1009F00006490860642002F073F801200449C1F838
:100A00008801322002F06CF810BD0000888121427C
:100A1000008021422DE9FC5F04460E4617469846A9
:100A2000DDE90C9A019406EB0800401E83B2E01940
:100A3000401E82B23146204600F0C4F94FF0000B50
:100A400029E03D461DE0072D10DD08234A463146CA
:100A50002046CDF800A000F079F9A5F10800C5B254
:100A600009F1010904F1080084B20AE02B464A4664
:100A700031462046CDF800A000F068F909F10109DF
:100A800001E0002DDFDC00BF019C701C86B20BF181
:100A9000010000F0FF0BC345D3DBBDE8FC9F000065
:100AA00030B504460D462946204600F081F902483B
:100AB000008800F0E1FA30BD5000002010B500249D
:100AC00006E00549085D1021FFF7F4FE601CC4B282
:100AD000062CF6D310BD00007443000802460648F9
:100AE0000088531090FBF3F0884202DB501048431B
:100AF00070470020FCE70000CC01002002460548BA
:100B0000408890FBF2F0884202DB01FB02F0704764
:100B10000020FCE7CC01002010B5FFF7CFFFFFF766
:100B200065FF112000F094FA782001F0D9FFB12080
:100B300000F08EFA012000F077FA2C2000F074FA11
:100B40002D2000F071FAB22000F082FA012000F0AE
:100B50006BFA2C2000F068FA2D2000F065FAB32023
:100B600000F076FA012000F05FFA2C2000F05CFA29
:100B70002D2000F059FA012000F056FA2C2000F048
:100B800053FA2D2000F050FAB42000F061FA07204B
:100B900000F04AFAC02000F05BFAA22000F044FA0C
:100BA000022000F041FA842000F03EFAC12000F05B
:100BB0004FFAC52000F038FAC22000F049FA0A20A6
:100BC00000F032FA002000F02FFAC32000F040FAC3
:100BD0008A2000F029FA2A2000F026FAC42000F02A
:100BE00037FA8A2000F020FAEE2000F01DFAC52026
:100BF00000F02EFA0E2000F017FA362000F028FA46
:100C0000C82000F011FAE02000F022FA0F2000F0D6
:100C10000BFA1A2000F008FA0F2000F005FA18204D
:100C200000F002FA2F2000F0FFF9282000F0FCF974
:100C3000202000F0F9F9222000F0F6F91F2000F042
:100C4000F3F91B2000F0F0F9232000F0EDF9372034
:100C500000F0EAF9002000F0E7F9072000F0E4F9DD
:100C6000022000F0E1F9102000F0DEF9E12000F0B0
:100C7000EFF90F2000F0D8F91B2000F0D5F90F2074
:100C800000F0D2F9172000F0CFF9332000F0CCF9B2
:100C90002C2000F0C9F9292000F0C6F92E2000F020
:100CA000C3F9302000F0C0F9302000F0BDF9392040
:100CB00000F0BAF93F2000F0B7F9002000F0B4F9D5
:100CC000072000F0B1F9032000F0AEF9102000F089
:100CD000ABF92A2000F0BCF9002000F0A5F90020B3
:100CE00000F0A2F9002000F09FF97F2000F09CF9AD
:100CF0002B2000F0ADF9002000F096F9002000F064
:100D000093F9002000F090F99F2000F08DF9F02079
:100D100000F09EF9012000F087F9F62000F098F924
:100D2000002000F081F93A2000F092F9052000F04F
:100D30007BF9292000F08CF9022000F0C7F901208E
:100D40000149086010BD0000948121422DE9F0475F
:100D50000646894617461D46DDF82080082D00DD31
:100D6000082500241CE0387880212141084060B12A
:100D7000B8F1000F04D049463046FFF791FE0BE072
:100D80000948008800F078F906E0B8F1000F03D1B7
:100D90000648008800F070F9701C86B2601CC4B26E
:100DA000AC42E0DBBDE8F08750000020520000209C
:100DB00030B504460D462B4622462946204600F013
:100DC00001F830BDF0B504460D4616461F461749DA
:100DD000887A00F03DF9201200F026F91349897B4A
:100DE0002144C8B200F020F9301200F01DF90F497B
:100DF000897B3144C8B200F017F90C49087B00F038
:100E000027F9281200F010F90849C97B2944C8B213
:100E100000F00AF9381200F007F90449C97B394497
:100E2000C8B200F001F900F03FF9F0BDCC0100209C
:100E30002DE9FC4706460F4690461C46DDF828A0E3
:100E400004EBD471244A1288A2EB6101B14204DBA5
:100E500021494988091BB94201DABDE8FC87A8F19C
:100E6000200000F0FF08A14604EBD97006EB6000FB
:100E7000401E82B23819401E83B239463046FFF711
:100E8000A1FF0C2C02D0102C04D101E0134D02E084
:100E9000134D00E000BF00BF204600F01BFA08FB26
:100EA0000055A14604EBD970C0F3470223463946EA
:100EB0003046CDE9005AFFF7ADFD07484088401E97
:100EC00083B205480088401E82B200210846FFF721
:100ED00079FF00BFC1E70000CC010020D64A00081E
:100EE0004A4F00082DE9FC5F81468A4617461D4699
:100EF0002A480088401B484504DB28484088401B9E
:100F0000504501DABDE8FC9F284600F0FFF9801C3F
:100F100000F0FF0B0C2D06D0102D07D0182D08D097
:100F2000202D0CD108E037261D4C09E007261D4C6A
:100F300006E001261C4C03E001261C4C00E000BF2B
:100F400000BF4FF0000817E02078397888420ED1B2
:100F50006078797888420AD1A41C0C982B462A46DE
:100F60005146CDE900404846FFF754FD06E05C4499
:100F700008F101001FFA80F8B045E5DB00BF074823
:100F80004088401E83B205480088401E82B200217E
:100F90000846FFF717FF00BFB4E70000CC010020B0
:100FA000864300081C4900080A4A0008544A000801
:100FB0002DE9F84306460F4614461D46DDF820800D
:100FC000B146202D00DD202528E0207880281ADA7F
:100FD00020780D2807D1781987B24E4660780A2804
:100FE0000FD1641C0DE0CDF8008022782B463946E5
:100FF0003046FFF71DFF284605EBD07106EB610177
:101000008EB2641C0AE02B46224639463046CDF8A3
:101010000080FFF767FFA41C701986B220780028B3
:10102000D3D1BDE8F883000010B50446002006497E
:10103000086001200549C1F88C01204601F018F92B
:1010400001200149086010BD9081214200802142A9
:1010500010B504460020064908600649C1F88C0115
:10106000204601F005F901200149086010BD00008B
:10107000908121420080214210B504460020084999
:10108000086001200749C1F88C01201201F0F0F836
:10109000E0B201F0EDF801200149086010BD000048
:1010A000908121420080214200B50249087AFFF771
:1010B000CFFF00BDCC01002030B505460C462846C8
:1010C000FFF7C6FFE0B2FFF7AFFF30BD10B5044633
:1010D0002A20214948812B2088812C20088134B185
:1010E000012C11D0022C1CD0032C32D125E0802001
:1010F000194908804880002088732020C873C821BF
:101100003620FFF7D9FF25E080201349088048806A
:10111000202088730020C873A8213620FFF7CCFF59
:1011200018E080200C490880488000208873C8732C
:1011300008213620FFF7C0FF0CE080200649088018
:10114000488000208873C87368213620FFF7B4FFF9
:1011500000E000BF00BF10BDCC01002000BFFEE7D3
:1011600030B504460025554800785A280AD12C2C61
:1011700008D1524800785249087100204880012067
:10118000504908704F48007800280DDD4D48007820
:10119000202809DC4A48001D4A4909784454494836
:1011A0000078401C4749087046480078082807D155
:1011B0004348417A007A01EB0020414948807AE0B7
:1011C0003F4840883F490978884274DC3C48408861
:1011D000002870D03A488078801EC1B23848001D7F
:1011E00002F078FA3849088035484088401E344972
:1011F000091D0A5C081F4088801E085C02EB002065
:1012000031490988884251D12D48C17A807A01EB51
:10121000002085B240F20D31681A8D4213D008DCEF
:10122000A5F20A2008B3032823D0B0F5807F3BD174
:1012300005E0FD282FD0A0F6FD1080BB30E0012096
:101240002249087031E00120204908701C48807D47
:1012500038B91B48417D007D01EB00201C49088006
:1012600002E000201A4908801FE001201749087099
:101270001BE00120154908701148C07D38B910489D
:10128000817D407D01EB00201149088002E00020B3
:101290000F49088009E001200C49087005E003E0CF
:1012A00001200A49087000E000BF00BF0020044987
:1012B0004880044908700148047030BDCB0000200C
:1012C000DC010020680000206E0000206C0000207F
:1012D0006A00002010B50146084601EBD072C2F347
:1012E00047010A46C81701EB5070C0100B46CC17D7
:1012F00001EB5474E410A1EBC4040CB1012400E030
:101300000024204448434006000E10BD10B501469D
:101310000A46C81701EB5070C0100B46CC1701EB02
:101320005474E410A1EBC4040CB1012400E00024C7
:1013300020444843C0B210BD10B500240EE0002088
:1013400028B10849085D2821FFF7B4FA04E00549EF
:10135000085D4821FFF7AEFA601CC4B2052CEED33D
:1013600010BD00006943000830B50020002127E0CF
:10137000154A525C1211154B1C1504FB023202F087
:10138000704202F10072104B5B5C1B110F4C251573
:1013900005FB0343C3F3130302EB43120A4B5B5CED
:1013A00003F00F0352F8233000220A4102F0010239
:1013B000934203D101228A400243D0B24A1CD1B2E7
:1013C0000529D5D330BD0000694300080808014055
:1013D00010B50024FFF7C8FF04460948007884428E
:1013E00005D0082001F07CFBFFF7BEFF044604484F
:1013F00000786040034908700148047010BD000087
:101400003C0000203D00002070B5002426E0154976
:10141000085D1021FFF74EFA0020204100F0010185
:101420001048005D0011104A131503FB002000F066
:10143000704000F100700B4A125D12110A4B1D152D
:1014400005FB0232C2F3130200EB4210054A125DA3
:1014500002F00F0240F82210601CC4B2002CD6D05B
:1014600070BD0000614300080C08014010B504463F
:101470000CB100F027F81148006808B9002010BD31
:1014800000F018FA50B10E48008820F400400C49D2
:1014900008800CB100F01CF80120F0E70748006854
:1014A00080680649086006480088001104490880E1
:1014B0000CB100F00DF80120E1E70000E000002091
:1014C000DC00002010B50020FFF76CFA10BD000012
:1014D00038B56E48006878B900206D4908706D48CD
:1014E00000780978884206D0694800786949087010
:1014F0000020FFF757FA38BD01206549087065489C
:1015000000780978884206D06148007861490870FF
:101510000020FFF747FA4FF6E0705F49088000F0BF
:10152000C9F9C8B100211020FFF7E8FA04460221EA
:101530000C20FFF7D3FA05460020009053480068BE
:10154000406852490968497C50F821200C23214603
:101550002846FFF72DFDCEE700211020FFF7CEFA39
:10156000044602210C20FFF7B9FA0546002000903E
:10157000464800680C23214602682846FFF718FDFC
:1015800000204649086077E040480068407C4349B5
:101590000968884237D11F203F4908803F480078BA
:1015A000401CC1B21020FFF7A9FA054601210C200A
:1015B000FFF794FA044600200C2339A22946009034
:1015C0002046FFF7F5FC35480078401CC1B21020DA
:1015D000FFF794FA044602210C20FFF77FFA054634
:1015E000002000902948006840682C49096850F89C
:1015F00021200C2321462846FFF7DAFC4FF6FF7026
:101600002549088033E04FF6FF70234908802348BE
:101610000078401CC1B21020FFF770FA0446012187
:101620000C20FFF75BFA054600200C231DA2214683
:1016300000902846FFF7BCFC18480078401CC1B257
:101640001020FFF75BFA044602210C20FFF746FA50
:101650000546002000900D48006840680F49096861
:1016600050F821200C2321462846FFF7A1FC0B4807
:101670000068401C0949086004480068007C07496C
:101680000968884280D800BF35E70000E0000020EC
:101690002900002028000020500000201800002011
:1016A0003E000000200000000348006808B9002048
:1016B000704702480088FBE7E0000020DC000020C3
:1016C000002005E00C490D4A42F82010411CC8B228
:1016D0000A28F7DB0A4909780A4A11740AA111603D
:1016E0000749496851600021916004490968D16047
:1016F000002151747047000050550008140200206A
:10170000485500080002002020BBB6D3ADCAB9D3AB
:10171000C300000010B5044600F0CCF808B100206A
:1017200010BD0CB1FFF7CEFE1A48006818B91A4870
:101730001849086018E017480068C06820B11548CB
:101740000068C068007C50B91448008840F400402C
:10175000124908800CB1FFF7BBFE0020E0E70D48FE
:101760000068C0680B4908600C4800884FF6FF719C
:1017700001EA00100949088006480068407C401CC6
:1017800009880843054908800CB1FFF7A1FE012034
:10179000C6E70000E000002000020020DC0000207E
:1017A00010B5044600F086F800B110BD1D48006871
:1017B000417C1C480068007C401E814211D11948C0
:1017C0000068C06817490968497C01EB8101A0EBFA
:1017D000810014490968C8600020124909684874EA
:1017E0000DE010480068C06814300E490968C860F0
:1017F0000C480068407C401C0A49096848740A4843
:10180000008820F00F000849088006480068407CE6
:10181000401C09880843044908800CB1FFF758FEB2
:1018200000BFC2E7E0000020DC00002010B5044645
:1018300000F040F800B110BD1C480068407CA0B921
:101840001A480068007C401E184909684874174807
:101850000068C06815490968497C01EB810100EB0B
:10186000810012490968C8600DE010480068407C9A
:10187000401E0E49096848740C480068C068143856
:101880000A490968C8600A48008820F00F00084922
:10189000088006480068407C401C098808430449C9
:1018A00008800CB1FFF714FE00BFC4E7E000002081
:1018B000DC00002001480088C00B7047DC000020DD
:1018C00070B504460D4616464FF4FA6001F012F961
:1018D00032462946204600F001F870BD70B588B048
:1018E00006460C461546B6F1804F2CD08D48304444
:1018F00000284BD0B0F5806F6BD0B0F5943F7DD110
:101900000121C80200F02AFC04F0010018B11821DE
:101910000820FEF7CFFF04F0020018B118210920BB
:10192000FEF7C8FF04F0040018B118210A20FEF7E2
:10193000C1FF04F0080018B118210B20FEF7BAFF10
:10194000794805806BE00121084600F0E7FB04F0D0
:10195000010018B118210020FEF7ACFF04F00200CE
:1019600018B118210120FEF7A5FF04F0040018B1FA
:1019700018210220FEF79EFF04F0080018B118217C
:101980000320FEF797FF6848458048E001210220C8
:1019900000F0C4FB04F0010018B118210620FEF786
:1019A00089FF04F0020018B118210720FEF782FF1A
:1019B00004F0040018B118211020FEF77BFF04F09A
:1019C000080018B118211120FEF774FF56488580D1
:1019D00025E00121042000F0A1FB04F0010018B172
:1019E00018211620FEF766FF04F0020018B1182136
:1019F0001720FEF75FFF04F0040000E00EE018B1CE
:101A000018210846FEF756FF04F0080018B1182107
:101A10001920FEF74FFF4448C58000E000BF00BF1B
:101A2000681E80B2ADF818004720ADF81400002001
:101A3000ADF81A00ADF8160005A9304600F08EFE8C
:101A40006020ADF804000120ADF80600ADF80A50A2
:101A50000020ADF80C004FF48070ADF8100004F0D9
:101A6000010018B101A9304600F014FD04F0020095
:101A700018B101A9304600F063FD04F0040018B16C
:101A800001A9304600F0BCFD04F0080018B101A91E
:101A9000304600F00FFE04F0010018B1002130467E
:101AA00000F053FE04F0020018B10021304600F0AF
:101AB0004EFE04F0040018B10021304600F049FE4B
:101AC00004F0080018B10021304600F044FE012166
:101AD000304600F0CFFC04F0010018B10821304678
:101AE00000F024FD04F0020018B10821304600F097
:101AF00079FD04F0040018B10821304600F0D0FD53
:101B000004F0080018B10821304600F011FE012150
:101B1000304600F097FC0121304600F09FFC08B0F1
:101B200070BD000000FCFFBFF40000202DE9F05F55
:101B300007460C4616463F49304602F065FB00D288
:101B40003C4EB7F1804F0BD03B48384458B1B0F50C
:101B5000806F0BD0B0F5943F0BD13848058809E071
:101B60003648458806E03548858803E03348C5880F
:101B700000E000BF00BF04F0010098B1284602F069
:101B80002FFA8346314602F073FA8246294902F061
:101B900029F9814602F004FA1FFA80F841463846D6
:101BA00000F0D3FD04F0020098B1284602F018FAC4
:101BB0008346314602F05CFA82461E4902F012F971
:101BC000814602F0EDF91FFA80F84146384600F0F0
:101BD000BEFD04F0040098B1284602F001FA8346E5
:101BE000314602F045FA8246124902F0FBF881467E
:101BF00002F0D6F91FFA80F84146384600F0A9FDF8
:101C000004F0080098B1284602F0EAF9834631460C
:101C100002F02EFA8246074902F0E4F8814602F00B
:101C2000BFF91FFA80F84146384600F094FDBDE840
:101C3000F09F00000000C84200FCFFBFF40000203D
:101C400070B504460E461546042C10DA094840F8D3
:101C50002460094805550020084921F8140044F67D
:101C6000206229463046FFF72BFE012070BD002080
:101C7000FCE700003C0200200C01002010010020C5
:101C80000146054850F8210010B10448405C08B9ED
:101C9000002070470120FCE73C0200200C010020DE
:101CA0002DE9F04F85B082468B465046FFF7E8FF9E
:101CB00018B9002005B0BDE8F08F2249584602F05F
:101CC000D7F9044602F050F900B21F4921F81A0072
:101CD0001E49584602F098FA02D2DFF870B006E0CA
:101CE0001B49584602F090F901D2DFF864B0174959
:101CF000584602F009F883461649584602F072F831
:101D0000019001F0D5FF144A144BCDE9020101F016
:101D1000DBFD0646104A114B01F0D4FE04460022BA
:101D20000F4B01F029FD804601F0F4FC0D4A0490B0
:101D300012F80A100C4A52F82A00049AFFF7F6FE2D
:101D40000120B7E70000C842100100200000B442A3
:101D50000000B4C200003443CDCCCCCCCCCC22406B
:101D6000000008400C0100203C02002030B514485F
:101D700000684FF47A72B0FBF2F1481EB0F1807F38
:101D800000D31BE0481E4FF0E022506150170F2295
:101D9000002804DB13071C0E0A4B1C5406E0130733
:101DA0001D0E094B00F00F04241F1D5500BF00201D
:101DB0004FF0E02290610720106100BF30BD0000AD
:101DC0004401002000E400E018ED00E030B585B0EB
:101DD00004460D464048844212D10121880300F098
:101DE000BDF918210920FEF765FD04210A20FEF740
:101DF00061FD25208DF8000000208DF802002AE00A
:101E00003648844212D10121480400F087F9182194
:101E10000220FEF74FFD04210320FEF74BFD262094
:101E20008DF8000001208DF8020014E02C48844257
:101E300011D10121880400F071F918211A20FEF750
:101E400039FD04211B20FEF735FD27208DF8000009
:101E500002208DF8020003208DF8010001208DF88A
:101E60000300684600F00EF901950020ADF8080067
:101E7000ADF80A00ADF80C00ADF810000C20ADF87C
:101E80000E00204600F0FAFC01A9204600F094FD67
:101E90001148844206D1012240F22551204600F02B
:101EA00065FD12E00D48844206D1012240F2255121
:101EB000204600F05BFD08E00948844205D101227C
:101EC00040F22551204600F051FD0121204600F04E
:101ED000C9FC05B030BD000000380140004400409E
:101EE0000048004070B504460D4600BF208800F051
:101EF00040000028FAD02946204600F0CEFD70BDF3
:101F000070B506460C46154604E021783046FFF7CA
:101F1000E9FF641C2800A5F101018DB2F5D170BD67
:101F200010B52048007800EB00101F4911F8100090
:101F300000F00100A0B31B49097801EB01111A4A16
:101F400002EB410000F0E0F81648007800EB0010CA
:101F5000154911F8100020F001001249097801EB31
:101F60000111114A02F811000E4A127802EB021216
:101F70000D4B33F8122051080A4A127802EB021274
:101F800003EB4202901CFEF7A5FA06480078401CBD
:101F90000449087008460078042801D10020087020
:101FA00010BD0000430100204C02002030B52A285B
:101FB00016D101212B4A117000212B4A117043B216
:101FC0002A49097801EB0111294A02EB4101891CD8
:101FD000254A14781278521C234D2A700B5540E084
:101FE0002049097801293CD143B22049097801EB05
:101FF00001111F4A02EB4101891C1B4A1478127817
:10200000521C194D2A700B55232821D117490978E4
:1020100001EB0111164A12F8111021F00101491CBF
:10202000124A127802EB0212114B03F812100F49F8
:102030000978491C0D4A117011460978042901DB01
:10204000002111700021084A1170064A117008E041
:1020500005490978202904DB0021024A1170024A4F
:10206000117030BD420100204001002041010020DC
:102070004C020020704710B54FF4A06000F03AF811
:1020800010BD000070B5002100230F22C47804B3F6
:10209000154C246804F4E064C4F5E064210AC1F13D
:1020A0000403CA40447804FA03F1847814402143BD
:1020B00009010E4C0678A155047804F01F0501248F
:1020C000AC4005786D11AD0005F1E025C5F8004183
:1020D00009E0047804F01F050124AC40044D0678A3
:1020E000761145F8264070BD0CED00E000E400E0FC
:1020F00080E100E002490143024A1160704700009C
:102100000000FA050CED00E070470000014908628C
:102110007047000000000E427047000029B1064AD7
:10212000D2690243044BDA6104E0034AD269824374
:10213000014BDA61704700000010024029B1064AE5
:1021400012690243044B1A6104E0034A1269824394
:10215000014B1A61704700000010024029B1064A85
:1021600092690243044B9A6104E0034A92698243F4
:10217000014B9A61704700000010024029B1064AE5
:10218000D2680243044BDA6004E0034AD268824317
:10219000014BDA60704700000010024030B50021AA
:1021A0000022002400232D4D6D6805F00C0121B1A3
:1021B000042905D0082923D105E0294D056022E036
:1021C000274D05601FE0254D6D6805F47012234D05
:1021D0006D6805F48034022505EB92421CB9214D4F
:1021E000554305600BE01D4D6D6805F400351DB1CC
:1021F0001C4D5543056002E0194D5543056002E052
:10220000174D056000BF00BF144D6D6805F0F0016B
:102210000909154D6B5C0568DD4045600F4D6D6823
:1022200005F4E061090A104D6B5C4568DD4085608E
:102230000A4D6D6805F46051C90A0B4D6B5C456829
:10224000DD40C560054D6D6805F44041890B074DC3
:102250006B5CC568B5FBF3F5056130BD001002404D
:1022600000127A0000093D0058010020680100209A
:102270000021082115E000F080021AB101220A4B6A
:102280001A6002E00022084B1A600022064B1B1F56
:102290001A600122054BC3F880214206100E4A1E27
:1022A000D1B20029E7DC70478481214200802142BD
:1022B000704710B500F002F810BD00000CB500200A
:1022C000019000903348006840F480303149086044
:1022D00000BF3048006800F4003000900198401CB6
:1022E0000190009818B90198B0F5A06FF1D1294874
:1022F000006800F4003010B10120009001E00020DF
:1023000000900098012843D12348006840F0100055
:10231000214908600846006820F00300086008466C
:10232000006840F0020008601A4840681949486097
:102330000846406848600846406840F4806048604D
:102340000846406820F47C1048600846406840F425
:10235000E81048600846006840F08070086000BFE0
:102360000C48006800F000700028F9D00948406867
:1023700020F00300074948600846406840F002002A
:10238000486000BF0348406800F00C000828F9D1FD
:102390000CBD000000100240002002400E48006802
:1023A000401C0D490860084600681421B0FBF1F29A
:1023B00001FB120010B901200849087006480068A6
:1023C0004FF4FA71B0FBF1F201FB1200012801D1C8
:1023D0000349087070470000280100202D010020EB
:1023E0002C01002010B51348006840F0010011498D
:1023F000086008464068104908400E494860084691
:1024000000680E4908400B4908600846006820F43F
:10241000802008600846406820F4FE0048604FF4C1
:102420001F008860FFF745FF4FF000600449086017
:1024300010BD0000001002400000FFF8FFFFF6FE94
:1024400008ED00E021B1028842F08002028004E041
:1024500002884FF67F731A400280704721B10288CC
:1024600042F00102028004E002884FF6FE731A4037
:102470000280704731B1B0F8442042F40042A0F825
:10248000442005E0B0F84420C2F30E02A0F8442036
:102490007047000070B5002400220023058C4FF621
:1024A000FE7635400584028C8388048B4FF68F7549
:1024B0002C40B51E2C400D882C43751E2A400D89DA
:1024C0002A434D882A43144DA8420BD0134DA842ED
:1024D00008D0134DA84205D0124DA84202D0124D8B
:1024E000A84213D14FF6F7752A404D892A434FF67B
:1024F000FB752A408D882A434FF6FF652B404FF627
:10250000FF552B408D892B43CD892B43838004833A
:10251000CD888586028470BD002C014000340140C6
:102520000040014000440140004801400A460021AB
:10253000018B4FF6F7731940114301837047000078
:1025400070B5002400220023058C4FF6EF7635404D
:102550000584028C8388048B48F6FF752C404FF667
:10256000FF452C400D884FF6FF7606EA05252C43E3
:102570004FF6DF752A400D8906EA05152A434D8876
:1025800006EA05152A43154DA84202D0144DA8426B
:102590001DD14FF67F752A404D894FF6FF7606EA2A
:1025A00005152A434FF6BF752A408D8806EA0515A2
:1025B0002A434FF6FF352B404FF2FF752B408D8994
:1025C00006EA85052B43CD8906EA85052B438380E2
:1025D0000483CD880587028470BD0000002C014073
:1025E000003401400A460021018B4FF2FF7319406D
:1025F0004FF6FF7303EA022319430183704700007B
:1026000070B5002400220023058C4FF6FF6635408C
:102610000584028C8388848B4FF68F752C404FF68F
:10262000FC752C400D882C434FF6FF552A400D8930
:102630004FF6FF7606EA05252A434D8806EA05256A
:102640002A43154DA84202D0144DA8421DD14FF285
:10265000FF752A404D894FF6FF7606EA05252A4385
:102660004FF6FF352A408D8806EA05252A434EF6A7
:10267000FF752B404DF6FF752B408D8906EA051539
:102680002B43CD8906EA05152B4383808483CD88AF
:102690008587028470BD0000002C01400034014099
:1026A0000A460021818B4FF6F7731940114381834D
:1026B0007047000070B5002200230024058C4EF600
:1026C000FF7635400584038C8488828B48F6FF753D
:1026D0002A404FF6FF452A400D884FF6FF7606EA5E
:1026E00005252A434DF6FF752B400D8906EA053571
:1026F0002B434D8806EA05352B430B4DA84202D0EB
:102700000A4DA84208D14BF6FF752C408D894FF633
:10271000FF7606EA85152C4384808283CD88A0F855
:102720004050038470BD0000002C01400034014083
:102730000A460021818B4FF2FF7319404FF6FF7359
:1027400003EA02231943818370478186704701871A
:10275000704781877047A0F84010704700220288B8
:102760001D4B98420ED01D4B98420BD0B0F1804FBC
:1027700008D01B4B984205D01A4B984202D01A4BF6
:10278000984204D14FF68F731A404B881A43174B67
:10279000984207D0164B984204D04FF6FF431A4098
:1027A000CB881A4302808B8883850B8803850A4B6C
:1027B00098420BD0094B984208D00E4B984205D056
:1027C0000D4B984202D00D4B984201D10B7A0386F3
:1027D0000123838270470000002C01400034014037
:1027E0000004004000080040000C004000100040C1
:1027F00000140040004001400044014000480140F6
:1028000010B540F22551064800F086F830B1044872
:1028100000F03EF9C4B22046FFF7C8FB10BD00002F
:102820000038014010B540F22551044800F074F81A
:1028300018B1024800F02CF9C4B210BD00440040A9
:1028400010B540F22551064800F066F830B1044852
:1028500000F01EF9C4B22046FEF782FC10BD000055
:102860000048004021B1828942F40052828104E094
:1028700082894DF6FF731A408281704710B5044675
:102880002048844209D101218803FFF777FC002109
:102890004FF48040FFF772FC32E01B48844209D1BC
:1028A00001214804FFF74AFC00214FF40030FFF7F4
:1028B00045FC25E01548844209D101218804FFF731
:1028C0003DFC00214FF48020FFF738FC18E0104851
:1028D000844209D10121C804FFF730FC00214FF4E4
:1028E0000020FFF72BFC0BE00A48844208D10121AD
:1028F0000805FFF723FC00214FF48010FFF71EFCB2
:1029000010BD000000380140004400400048004075
:10291000004C00400050004070B5024600240023E7
:102920000025002040F66A16B14200D100BFC1F375
:10293000421501F01F03012606FA03F3012D02D10F
:102940009689334006E0022D02D1168A334001E019
:10295000968A33400C12012606FA04F41688344095
:1029600013B10CB1012000E0002070BDF0B50346AA
:10297000002400260025002040F66A17B94200D145
:1029800000BF1846C1F3421401F01F06012707FAE1
:1029900006F5012C01D10C3004E0022C01D11030DD
:1029A00000E014301AB107682F43076002E007689F
:1029B000AF430760F0BD00002DE9F04786B0054643
:1029C0000E460024A24600BFA1460027B08900B1F0
:1029D00000BF2F462C8A4CF6FF700440F088044359
:1029E0002C82AC894EF6F3100440B088318908433C
:1029F000718908430443AC81AC8A4FF6FF40044020
:102A0000B0890443AC8201A8FFF7C8FB1F48874286
:102A100002D1DDF810A001E0DDF80CA0A88900F4D7
:102A2000004040B10AEBCA0000EB0A1031684900CF
:102A3000B0FBF1F807E00AEBCA0000EB0A103168BE
:102A40008900B0FBF1F86420B8FBF0F00401200924
:102A5000642101FB1089A88900F4004040B13220B4
:102A600000EBC900B0FBF1F000F00700044308E000
:102A7000322000EB09106421B0FBF1F000F00F00F0
:102A800004432C8106B0BDE8F08700000038014007
:102A900001468888C0F308007047C1F308028280AD
:102AA000704700BFFEE730380A2801D20120704786
:102AB0000020704700BF704710B50020044908800F
:102AC00004490870122204490448FFF719FA10BD9E
:102AD0006A0000206C000020B80000200048004080
:102AE00010B504464FF47A7104FB01F000F002F8CF
:102AF00010BD000030B500B930BD094C636800213D
:102B0000084C2468084DB4FBF5F44443A4F12002BA
:102B100002E0034C6468E11A9142FAD300BFEBE78C
:102B2000001000E04401002040420F0010B50020DA
:102B30000449088004490870122204490448FFF738
:102B4000DFF910BD6A0000206C0000209400002016
:102B50000048004010B50446002017490880174976
:102B600008702046E11704EB1161090A144A9173B9
:102B7000E11704EB11610912A4EB0121D1731021BB
:102B8000104600F0A7FD0F4908800888C11700EB28
:102B90001161090A0A4A11740A490888C11700EB31
:102BA00011610912A0EB0121517412220449064857
:102BB000FFF7A6F910BD00006A0000206C0000209D
:102BC000A60000206E000020004800400148007868
:102BD000704700006C00002001480088704700002A
:102BE0006A00002008B54FF41651F948FFF7EEF8D7
:102BF0004FF41651F748FFF7E9F84FF4E131F64882
:102C0000FFF7E4F8FEF798FBFEF7FEFB0222510700
:102C10000020FFF715F83220FFF762FF0021084679
:102C2000FFF73EF86420FFF75BFFEC490020FFF759
:102C300037F8FDF771FF0020FDF7B4FE0020E849EA
:102C400008804FF47840E7490880FEF739FDF4E347
:102C5000E548007801287DD10020E349087000F0A4
:102C6000D3FCFEF721FD48F20202811A904272D095
:102C700006DC50B16FF40041084400286CD129E112
:102C800001296AD00229F9D168E3D84800880028D0
:102C900036D00020D64908804FF6FF70D149088011
:102CA000D34802780088401CD14B1880D1B2102044
:102CB000FDF724FF044603210C20FDF70FFF054616
:102CC00000200C23CBA2214600902846FEF770F985
:102CD000C74802780088401CC54B1880D1B210202C
:102CE000FDF70CFF044603210C20FDF7F7FE054617
:102CF00000200C23C2A2214600902846FEF758F976
:102D00000020FDF739FE20B100F0D0FC0120C149C0
:102D100008700120FDF730FE20B1FFF7CDFE002046
:102D2000BC490870BB48007801287DD10220B04919
:102D300008804FF6E070AB490880AD480278008803
:102D4000401CAB4B1880D1B21020FDF7D7FE0446D3
:102D5000032103E0FAE3E5E1F9E395E20C20FDF756
:102D6000BDFE054600200C23ABA22146009028465C
:102D7000FEF71EF9FFF730FF00283BD00020A549E1
:102D80000870FFF729FF04462246A8A1AC48FDF7CA
:102D900063FA974802780088401C954B1880D1B29E
:102DA0001020FDF7ABFE044603210C20FDF796FE34
:102DB000054600200C23A24A214600902846FEF733
:102DC000F7F805209F4908809F480088401C9E49CD
:102DD000088000209D49086007E06420FFF780FE1E
:102DE0009A480068401C99490860984800680A2879
:102DF000F3D350E07E4802780088401C7C4B18805A
:102E0000D1B21020FDF77AFE044603210C20FDF715
:102E100065FE054600200C238DA221460090284621
:102E2000FEF7C6F837E0FFE70220714908804FF649
:102E3000E0706C4908806E4802780088401C6C4B3A
:102E40001880D1B21020FDF759FE044603210C2052
:102E5000FDF744FE054600200C2381A22146009088
:102E60002846FEF7A5F8624802780088401C604BAF
:102E70001880D1B21020FDF741FE044603210C203A
:102E8000FDF72CFE054600200C237AA22146009077
:102E90002846FEF78DF84FF6FF70524908807A48B1
:102EA00003886948028879A16548FDF7D5F90621AC
:102EB0001020FDF723FE044603210C20FDF70EFE33
:102EC000054600200C235E4A214600902846FEF766
:102ED0006FF85AE30020FDF74FFD20B100F0D2FB60
:102EE00001204C4908704B48007801286FD102201E
:102EF0003F4908804FF6E0703A4908803C48027824
:102F00000088401C3A4B1880D1B21020FDF7F6FD26
:102F1000044602210C20FDF7E1FD054600200C23AC
:102F200060A2214600902846FEF742F8FFF754FEC3
:102F300098B3002037490870FFF74EFE044622463A
:102F40003AA13F48FDF788F9294802780088401CDB
:102F5000274B1880D1B21020FDF7D0FD0446022186
:102F60000C20FDF7BBFD054600200C23344A21460A
:102F700000902846FEF71CF800203449086007E05E
:102F80006420FFF7ADFD31480068401C2F49086000
:102F90002E4800680A28F3D3C3E0FFE714480278FC
:102FA0000088401C124B1880D1B21020FDF7A6FDFE
:102FB000044602210C20FDF791FD054600200C235C
:102FC00023A2214600902846FDF7F2FFA9E071E018
:102FD000003801400044004000480040000070C23A
:102FE00052000020500000202D0100201000002081
:102FF00012000020BBB6D3ADCAB9D3C30000000095
:10300000C8CBC1B3D7A2B2E1CAB6B1F0CFB5CDB388
:10301000000000001C000020C8CBC1B3CAB6B1F04C
:10302000D6D02E2E2E20202020202000C8CBC1B3A9
:10303000CCD8D5F749643A2530326420200000000E
:103040006C01002026000020240000201800002031
:10305000C8CBC1B3CCD8D5F749643A2A2A2020007E
:103060004B31C6F4B6AFCAB6B1F0204B32C8A1CFCF
:10307000FB000000202020202020202020202020D5
:10308000202020202000000022000020BDF8CAFDE2
:103090003A2530336420B3F6CAFD3A253033642034
:1030A00020000000C8CBC1B3D7A2B2E1D6D02E2EEB
:1030B0002E2020000220FE4908804FF6FF70FD49B7
:1030C0000880FB4802780088401CF94B1880D1B278
:1030D0001020FDF713FD044602210C20FDF7FEFC35
:1030E000054600200C23F4A2214600902846FDF757
:1030F0005FFFEF4802780088401CED4B1880D1B28A
:103100001020FDF7FBFC044602210C20FDF7E6FC35
:10311000054600200C23ECA2214600902846FDF72E
:1031200047FF32E2ED48008848F20201884218D099
:103130000120EB4908804FF6FF70DE49088002212C
:103140001020FDF7DBFC044603210C20FDF7C6FC34
:10315000054600200C23E3A2214600902846FDF7F7
:1031600027FF0020FDF708FC40B1DD4800886328F8
:1031700004DADB480088401CD94908800120FDF7AB
:10318000FBFB40B1D6480088012804DDD448008804
:10319000401ED34908800220FDF7EEFB002853D0E3
:1031A000D548007801284FD1CD480088FFF7D2FCE0
:1031B0000020D249086007E06420FFF791FCCF4867
:1031C0000068401CCD490860CC4800680528F3D34E
:1031D0004FF6E070B7490880FFF7F8FC90B1032183
:1031E0001020FDF78BFC044603210C20FDF776FC34
:1031F000054600200C23C2A2214600902846FDF778
:10320000D7FE11E003211020FDF778FC04460321CE
:103210000C20FDF763FC054600200C23BCA22146D0
:1032200000902846FDF7C4FE0020B449086007E07E
:103230006420FFF755FCB1480068401CAF490860A6
:10324000AE4800680F28F3D34FF6E0709949088024
:10325000A3480288B2A1B648FCF7FEFF0321102064
:10326000FDF74CFC044603210C20FDF737FC054616
:1032700000200C23AE4A214600902846FDF798FE18
:1032800001209D49087080E14FF6FF708949088050
:1032900002211020FDF732FC044603210C20FDF72B
:1032A0001DFC054600200C23A2A2214600902846C2
:1032B000FDF77EFE0020FDF75FFB00284DD0FFF7F5
:1032C00035FC00208D49086007E06420FFF708FC0A
:1032D0008A480068401C89490860884800680528B9
:1032E000F3D34FF6E07073490880FFF76FFC90B19D
:1032F00003211020FDF702FC044603210C20FDF7FA
:10330000EDFB054600200C237DA2214600902846B7
:10331000FDF74EFE11E003211020FDF7EFFB044600
:1033200003210C20FDF7DAFB054600200C2378A2D0
:10333000214600902846FDF73BFE00206F490860BB
:1033400007E06420FFF7CCFB6C480068401C6B4929
:1033500008606A4800680F28F3D316E10020FDF7E3
:103360000BFB20B100F0A2F9012077490870012081
:10337000FDF702FB20B1FFF79FFB002072490870A8
:1033800071480078012874D10220494908804FF61D
:10339000E07048490880464802780088401C444B49
:1033A0001880D1B21020FDF7A9FB044603210C20A0
:1033B000FDF794FB054600200C23AFF2A432214612
:1033C00000902846FDF7F4FDFFF706FCA0B30020AF
:1033D0005D490870FFF700FC04462246AFF2B431A5
:1033E0005348FCF739FF324802780088401C304BC4
:1033F0001880D1B21020FDF781FB044603210C2078
:10340000FDF76CFB054600200C23494A214600903D
:103410002846FDF7CDFD00203849086007E064200C
:10342000FFF75EFB35480068401C344908603348AC
:1034300000680F28F3D3A6E000E0D3E01C48027830
:103440000088401C1A4B1880D1B21020FDF756FBA3
:10345000044603210C20FDF741FB054600200C2308
:10346000AFF21442214600902846FDF7A1FD8AE004
:10347000FFE702200E4908804FF6FF700D490880D3
:103480000B4802780088401C094B1880D1B21020EC
:10349000FDF734FB044603210C20FDF71FFB054616
:1034A00000200C23AFF248422146009028464FE00E
:1034B00012000020500000204B31C6F4B6AFC8CB3C
:1034C000C1B3D7A2B2E1200020202020202020205C
:1034D00020202020202020200000000010000020BC
:1034E0001E0000204B313A2B204B323A2D204B331B
:1034F0003AC8B7B6A800000020000020180000203D
:10350000C9BEB3FDB3C9B9A6212020202000000008
:10351000C9BEB3FDCAA7B0DC2120202020000000D6
:10352000D2AAC9BEB3FD49643A25303264202000D6
:103530006C0100204B313AC9BEB3FDC8ABB2BFC865
:10354000CBC1B349440000001C0000202FE01BE069
:10355000FDF72EFD244802780088401C224B18807D
:10356000D1B21020FDF7CAFA044603210C20FDF762
:10357000B5FA054600200C23AFF208522146009010
:103580002846FDF715FD00BF00BF00BFFEF78CF811
:103590001649098888420AD0FEF786F81349088040
:1035A000FFF78AFA00201249087012490870124881
:1035B0000078012814D100200F4908700F480088B6
:1035C000002809DD0D480088401E0C4908800C4980
:1035D0000020FEF765FB03E00A490020FEF760FBD0
:1035E000FEF79EFCFFF734BB120000201000002005
:1035F0001C000020200000202C01002026000020BC
:1036000000007042000070C210B5FDF7E1FE1A48DC
:103610000068E0B10020FDF7AFF910B10120FEF71E
:1036200005F90120FDF7A8F910B10120FEF7B8F85F
:103630000220FDF7A1F910B10120FEF76BF803207D
:10364000FDF79AF9B8B10120FDF710FF13E0032050
:10365000FDF792F918B10120FEF75CF80BE00420A9
:10366000FDF78AF938B105480088401C03490880F5
:1036700005200349088010BDE00000202200002042
:103680002600002010B50020044908800449087075
:10369000122204490448FEF733FC10BD6A000020E2
:1036A0006C000020700000200048004010B5002091
:1036B0000449088004490870122204490448FEF7AE
:1036C0001FFC10BD6A0000206C000020820000205A
:1036D0000048004070B502460B464FF6FF710024CB
:1036E00013E012F8010B414000250AE001F001004F
:1036F00020B148F2084080EA610100E04910681CEE
:10370000C5B2082DF2DB601CC4B29C42E9DBC843A1
:1037100080B270BD21F00042A2F16052B2F5801F6C
:1037200001F0004328BFD2F17F6C0BD95FEA001C87
:1037300043EAC20242EB507018BF704728BF20F026
:1037400001007047B2F5801FBCBF184670474FEAB2
:10375000410C1CF5001F02D2084600F050BD70B5A8
:1037600000F05CF900000089FFF7F6BF4FF0004061
:10377000A0F580007047000010B591EA030F48BF24
:1037800083F0004300F1B281841A71EB030C05D27F
:10379000121943EB0C03001B61EB0C01DFF824E171
:1037A0004FEA1154A4EB135C1EEA430F18BF9EEAC4
:1037B000445F73D023EA0E03DCF1200E21EA0451AA
:1037C00043F4801332D322FA0CFE10EB0E0023FADE
:1037D0000CFE41EB0E01CCF1200E03FA0EFE10EBB5
:1037E0000E0051F10001B1F5801FCCF1200E32D254
:1037F00001EB045112FA0EF2BDE8104058BF7047B9
:10380000401C38BF5FEA420218BF7047002814BF4F
:1038100020F0010041F100014FEA410313F5001FC0
:1038200038BF7047A1F1C04100F046B9012A43EB0F
:103830000302ACF1200CDCF11F0E32BF4FF0000E82
:1038400023FA0CF310EB030041EB0451B4EB115FCE
:10385000D0D0A1EB045101F5801149085FEA300096
:1038600001EB04510ED350F1000038BF12FA0EFEE6
:1038700008D1BDE81040C9E7401C38BF5FEA4202EA
:10388000CAD1C3E7BDE810404FEA410313F5001F5A
:1038900038BF7047A1F1C04100F00EB99EEA445F05
:1038A00008D011EA5E0FBDE8104004BF01F00041EE
:1038B00000207047BDE8104070B500F0AFF800BFC1
:1038C00064FBBE3E0000E0FFDFF848C170B51CEAB3
:1038D000111E1EBF1CEA13159EEA0C0F95EA0C0F71
:1038E00000F06F8081EA030423EA4C134EEAD47E91
:1038F00021EA4C1141F4801143F48013AE44A1FB42
:10390000024CA0FB0365AEF17F7E361955EB0C052A
:10391000A1FB034C4CF10003A0FB021C16EB0C06B0
:10392000654153F10003094218BF46F0010613F444
:10393000007F0BD14FEA03314FEA0530340341EAEF
:10394000155140EA16506FF003020AE04FEAC32116
:103950004FEAC520F40241EA555140EA56506FF053
:10396000020202EB2E4201EB025585EACE710AD02B
:103970005FEA440C18BF24F0004450F1000041F10C
:10398000000120EAD47040F2FE7C624500D270BD96
:10399000A84214BF4FF080444FF04044002E08BFAF
:1039A0000024BEF1806FA8BFA1F1C041BDE8704006
:1039B00080F282804FF0000001F1C04101F000412F
:1039C00070479EEA0C0F0CEA131518BF95EA0C0F0E
:1039D00006D04FF0000081EA030E0EF0004170BDEA
:1039E00000F01CF88900013E00F007B800F009B8AB
:1039F0004FEA430C5FEA5C5C08D081EA030100F007
:103A00005BB84FEA410C5FEA5C5CF6D14FF0000016
:103A1000014970470000FF070000F87F0EF1020E19
:103A20002EF0030E5EF8046B364205D4012A43EBF8
:103A3000030515F5001F12D8012841EB010C1CF5F8
:103A4000001F0CD80ED14FEAD17C15F5001F0CEBEE
:103A50004C0C0CF1020C08BF4CEBD37C04E04FF093
:103A6000080C01E04FEAD37C0CEB4C0526FA05F676
:103A700006F00706B6F1040C06D20EEB860CBDE884
:103A800070404CF0010C6047DFE80CF0090B0202BB
:103A90004FF000414FF00000A1F5002170BD194624
:103AA0001046012851EB010418BFD4F5001484BF5F
:103AB000002001F0004170BD0808A0F500114FEA98
:103AC0003101704791EA030F10B581F000413FF5D5
:103AD0005BAE83F0004300F009B8000010B591EA36
:103AE000030F48BF83F000433FF54EAE841A71EBDD
:103AF000030C07D212198CF0004C43EB0C03001B93
:103B000061EB0C01DFF8A4E14FEA1154A4EB135C64
:103B10001EEA430F18BF9EEA445F00F0B08023EA1C
:103B20006E03524221EA0451C3EB6E0338BF5B1EA1
:103B3000DCF1200E25D322FA0CFE10EB0E0043FA26
:103B40000CFE41EB0E01CCF1200E03FA0EFE10EB41
:103B50000E0051F10001CCF1200E29D412FA0EF220
:103B600001EB0451BDE8104058BF7047401C1CBF1A
:103B7000B2F1004F704700280CBF491C20F0010033
:103B8000704712EB020E43EB030218BF4FF0010E19
:103B90004EEA4202ACF1200CDCF11E0E54D943FA7D
:103BA0000CFE10EB0E0051F1FF31CCF11E0ED5D5FD
:103BB0000EF1010E12FA0EFE404141EB010101EB44
:103BC000445C5FEA5C5C10D910EBDE7001EB0451E1
:103BD00038BFBEF1004FBDE8104018BF7047002845
:103BE0000CBF491C20F00100704730D24FEAD42CA2
:103BF00011F5001124F400641BD0B1FA81F20B3AE4
:103C0000A41AA41ED2F12003914030FA03F3194301
:103C1000904001EBCC71002C01EB0451BDE8104049
:103C2000A8BF704701F1C0414FF0000001F0004112
:103C30007047B0FA80F310FA03F100D110BDE41A16
:103C4000173C4805C90AE4E701EB045110BD4910CF
:103C500001EB0451BDE810404FEA300002E04FF0A4
:103C6000000170474A0008BF0042F8D0B2F5001FBB
:103C700028BF704701F000414FF0000070479EEAF6
:103C8000445F07D011EA5E0FBDE8104004BF002179
:103C900000207047BDE8104070B5FFF7BFFE00BFC1
:103CA00040DFF63E83F00041104670470000E0FF21
:103CB00043004FEAD30C4FEA3C0C43401FBF400780
:103CC0000CF1605113F0FE4F70471CF0006F03D1F0
:103CD00000200CF0004170470CF0004343EA5070A4
:103CE00010B540EACC0000F044FA00BF000000929A
:103CF0004FEA0001FFF7E0BE4FF000414FF0000037
:103D0000A1F500217047000090EA010F48BF81F043
:103D1000004100F1B282421A3CBF801A89184FEA72
:103D2000D0524FF07F4C1CEA410FA2EBD15318BF89
:103D30009CEA026F00F03B804FF0004C4CEA002000
:103D40004CEA012121FA03FC10EB0C0C1ED202F10B
:103D5000FF325FEA1C2040EBC25038BF70471CF0B6
:103D60007F0F4FEA400C18BFBCF17F4F38BF704740
:103D7000C3F12003994008BF20F00100BCF17F4F40
:103D800038BF7047A0F1C04000F039BA4FEA3C009C
:103D9000000A40EBC25028BF1CF0FF0F4FEA400C56
:103DA000E6D018BFBCF17F4F38BF7047EAE79CEA06
:103DB000026F05D010EA5C0F08BF00F000407047AA
:103DC00010B500F0D6F900BF64FBBE3E401058BFEE
:103DD000C0F14040491058BFC1F140418142EFF36A
:103DE000008070474FF47F0C1CEAD0121EBF1CEA03
:103DF000D11392EA0C0F93EA0C0F00F0858090EA41
:103E0000010F48BF42F4807240F4000C41F40000FE
:103E10002CF07F4120F07F4000B58142A2EB0302ED
:103E20000FF2081CACEB504EC0F100009EF800E011
:103E30004FEA4E0E00FB0EFC38BF49004FEA2C1C27
:103E400002F5FA020CFB0EF34FEACE1E4FEA112CDC
:103E50004FEAC1210EEB635E42EB22420EFB0CFCEB
:103E60004FEA1C5300FB03114FEA112C4FEA0131BA
:103E70000EFB0CFC4FEADC4C00FB0C11C14228BFCE
:103E800009184CEB03335DF804EB10EB410143EBF5
:103E9000C250B2F57C0F38BF704729D512F0F00F31
:103EA0001CBF00F1C04000F00040704700818283D9
:103EB0008485868788898B8C8D8E8F919293959639
:103EC00097999A9C9D9FA0A2A3A5A7A8AAACAEB0C3
:103ED000B2B3B5B7B9BCBEC0C2C5C7C9CCCED1D4C8
:103EE000D7D9DCDFE2E6E9ECF0F3F7FAFE000000F8
:103EF0004FEA400C0CF1807CBCF17E4F28BF70472C
:103F0000B0F1C04000F07BB990EA010F0CEAD11388
:103F100048BF42F48072624538BF634507D213F44C
:103F20007F0F16D080EA010000F00040704710B506
:103F300000F01FF9097EFC3E00F005B880EA0100A0
:103F400000F00040704780EA010000F0004000F0FF
:103F500056B912F47F0F04BF0248704780EA01008F
:103F600000F04DB90000C07F41000B0ED3F19E025E
:103F700008D950F400034FEA032323FA02F048BFA4
:103F80004042704710B500F0F4F800BF4992248019
:103F9000002070476FF0004282EA20007047000066
:103FA000C10DD1F19E0206DB4FEA002343F000432E
:103FB00023FA02F07047004207D54FEA4001B1F101
:103FC000FE4F02D24FF00000704710B500F0D1F85C
:103FD00049922480002070476FEA2000704700005B
:103FE000B0FA80F310FA03F2C3F19D030AD0D905A9
:103FF00001EB1220530638BF704700F1010008BFE3
:1040000020F001007047000050EA010C00F113801D
:104010001CF5000F58BFBCF5000F01D48842704753
:1040200007D710F5000F58BF11F5000F15D48842BF
:104030007047894270471CF5000F04D5BCF5000F8E
:10404000F7D5814270474FF0807C1CEB400F38BFA2
:104050001CEB410F01D28142704710B500F089F886
:10406000922449004FF000504FF08051FFF7AEBE50
:104070004FF47F0C1CEAD0121EBF1CEAD11392EA47
:104080000C0F93EA0C0F00F0478090EA010F48BF35
:1040900042F480724FF0004C4CEA00204CEA0121BF
:1040A00002EB0302A0FB0113A2F50002002918BFD6
:1040B00043F001035B0028BF4FEA330342EB224287
:1040C0005FEA132C4CEBC2502EBFBCEB436FB2F532
:1040D0007C0F70474FEA036CBCF1004F08BF20F023
:1040E0000100B2F57C0F38BF70470BD582F0FF029C
:1040F00012F5803FC8BF704700F1C040D8BF00F044
:104100000040704700F5000C5FEA4C0C48BF704758
:10411000B0F1C04000F073B890EA010F0CEAD1137F
:1041200048BF42F48072624538BF634504D280EADA
:10413000010000F00040704710B500F01AF800BF11
:104140008900013E00F007B800F009B85FEA410CB1
:104150005FEA1C6C08D080EA010000F050B85FEA0A
:10416000400C5FEA1C6CF6D14FF00040A0F58000D7
:1041700070470EF1020E2EF0030E5EF8044B24423F
:1041800004D44FEA4102B2F17F4F11D84FEA400305
:10419000B3F17F4F0CD80ED14FEAD07CB2F17F4FF4
:1041A0000CEB4C0C0CF1020C08BF4CEBD17C04E086
:1041B0004FF0080C01E04FEAD17C0CEB4C0324FAE1
:1041C00003F404F00704B4F1040C06D20EEB840CE3
:1041D000BDE810404CF0010C6047DFE80CF0070828
:1041E00002024FF00040A0F5800010BD08464200DA
:1041F00018BFD2F1807288BF00F0004010BDFF21CF
:1042000041EAD050C005704751EA000C00F113801C
:104210001CF5000F58BFBCF5000F01D48142704758
:1042200007D711F5000F58BF10F5000F15D48142C4
:104230007047894270471CF5000F04D5BCF5000F8C
:10424000F7D5884270474FF0807C1CEB410F38BF98
:104250001CEB400F01D28842704780EA010081EADE
:10426000000180EA0100FFF7F8BE000090EA010FAC
:1042700048BF81F000413FF54EAD421A04D882F0AC
:104280000042A0EB020011444FEAD0524FF07F4CA5
:104290001CEA410FA2EBD15318BF9CEA026F4AD02F
:1042A0004FF0004C4CEA00204CEA012121FA03FCBB
:1042B000B0EB0C0C0FD412F0FE0F36D05FEA4C00BE
:1042C0001DD5001240EBC25038BF70471CF03F0FA5
:1042D00018BF70470BE0A2F101025FEA1C2040EB1F
:1042E000C25038BF70471CF07F0F18BF7047C3F132
:1042F0002003994014BF401E20F001007047800841
:104300004FEA122308BF7047B0FA80FCA2EB0C0200
:10431000CCF1280C60FA0CF093EA122F04BF00EBEA
:10432000C25070474FEAC3707047130A5FEADC104F
:1043300008BF7047F6E79CEA026F04D010EA5C0FF2
:1043400008BF0020704710B5FFF713FF40DFF63EAF
:1043500081F000407047161718190010111213143D
:104360001505101112131415051617181900161734
:10437000181900051011121314151617181900102A
:10438000111213141505BBB60200FA000BE08C20C5
:104390005840510021002100528052808440082062
:1043A000D3AD840059E011201120D1205120552097
:1043B0005920516041004100BFE0CAB9110011000D
:1043C0002FE021006FE0A9202FE029002500220026
:1043D00025802860D3C300007FC0444044407FC094
:1043E000444044407FC044404440444081C0C8CB26
:1043F000040004000400040004000A000A00110084
:104400001100208040408020C1B301007100528023
:104410005440782057C05000724059405540548055
:10442000BFE0CAB640002FC008400840C84048401E
:104430004FC040004000648048401020B1F07E2012
:10444000422042A042A07EA010A0FEA012A022A066
:10445000222042209C60CFB503C07C000800108061
:104460003F00060018407FE00420248044408C2058
:10447000CDB32100208047E09100E240242047E0B6
:10448000F2A002803280C4A00860D6C740007DE060
:1044900091201120FD2029E04400BFC020403FC0F2
:1044A00020403FC0C4DC22404A80FB00022079E06B
:1044B00048007A004A407A804B204A2059E0CCEDEF
:1044C0000FC0820042001FE004808840522002009A
:1044D00023404AA092A00600BCD32000200021E087
:1044E000FD2025202520252025202520452045E0CC
:1044F0009920D0C5220021005FE04000CFC04000DD
:104500004FC040004FC048404FC04840CFA20800B5
:104510007FC040407FC040407FC040407FC004001B
:10452000524050A08FA0D7A20400820040001FC0BC
:104530000200820042001FC00200420082003FE0F1
:10454000B2E100007BC04A404A404A404A40FFE096
:104550004A404A404A404A409CC0C9BE0020EE2022
:10456000AAA0AAA0AAA0FFA0AAA0AAA0AAA0AA2026
:10457000AA206660B3FD0100E280A440A820C7C065
:10458000C100AFE0A100A540C92091208300B5A5DE
:10459000208011007FC044407FC044407FC00400A1
:1045A000FFE0040004000400B8F6040004000A0060
:1045B00011002480C460040004000400040004000E
:1045C0000400C8AB04000A0011002080C0603F80D6
:1045D000040004007FC004000400FFE0B2BF10002C
:1045E0007DE0012045202940FF4001207D2045201D
:1045F00045C07D004500CCD821002100A7C0F100B6
:10460000AFE0208037E0E08024802280208023807B
:10461000D5F720004FE0810021004100C90049E0AA
:1046200049004900490049005FE0B3C902800240E7
:104630007FE0420042007A404A404A8049205AA026
:1046400044608820B9A602000200FA0027E0222078
:104650002220222022203C20C420082010C0D6D0B6
:104660000400040004007FC04440444044407FC034
:104670004440040004000400C8A10000FC004BC03A
:10468000494079404940794049404C80F880094090
:104690000A20CFFB01004920254001008FE048207F
:1046A0000FE008202FE0482088200860B2D927C0FA
:1046B000244027C0F0002EE02AA03EE0E1002FE0D9
:1046C000238025406920D7F71400140027E02A0032
:1046D0006200A3C02200220023E022002200220068
:1046E000CAA70400240024003F8044008400040082
:1046F000FFE00A0011002080C060B0DC0100F9007A
:104700008A00ABE0AC40AA40AA40AA40AA8021009F
:1047100052808C60BCFC410063C099400FE0E940CE
:1047200053C05900EFC049005FE0690057E0C6F48C
:10473000040002003FE0202020203FE020003FE076
:10474000302050205FE09020B6AF010071000100E2
:1047500003E0F9202120412051208920FA20022065
:1047600004C0C8AB04000A0011002080C0603F8074
:10477000040004007FC004000400FFE0B2BF10008A
:104780007DE0012045202940FF4001207D2045207B
:1047900045C07D004500B2E20020BE2062A02AA0F4
:1047A0002AA0AAA06AA02AA02AA0482094202260B9
:1047B000CAD480A040800FE00080C0804E8044803A
:1047C0004480448046A06C604020C8B70200F3C01B
:1047D0002440208047E07520D7E0552057E0752021
:1047E00055200860B6A808000400FFE08020000003
:1047F000FFE00400240027C0240054008FE0D2AA68
:104800000000FFE00A007FC04A407FC00800FFE0D0
:10481000108031000E00F1C0B5A5208011007FC0CE
:1048200044407FC044407FC00400FFE00400040017
:104830000400B8F6040004000A0011002480C460DB
:10484000040004000400040004000400BDF84480D7
:1048500024800FC00480E48024803FE024802480F2
:10486000288050008FE0B3F60400444044404440A8
:104870007FC004000400842084208420FFE0002006
:10488000CAFD110055001100FDE03240594095402D
:104890002140F94048803140CA20A1F100000E00BB
:1048A0003F807FC07FC0FFE0FFE0FFE07FC07FC0B0
:1048B0003F800E00A1F8000004000E000E001F0053
:1048C0001F003F803F807FC0FFE000000000A88BFA
:1048D0000000FFE07FC03F803F801F001F000E00F0
:1048E0000E00040000000000A1FC060006000F00FE
:1048F0000F001F80060006000600060006000600E6
:104900000000A1FD060006000600060006000600E5
:104910001F800F000F00060006000000CFC200003D
:10492000FFFF0300030003000300036003300318CC
:10493000030C030C03000300030003000300B5A5F0
:1049400018180C3006603FFC318C318C3FFC318CE8
:10495000318C3FFC01800180FFFF018001800180DC
:10496000B3C90078006C00603FFF30603060306693
:104970003F663366333C333C331B3F3B666F60C757
:10498000C183B9A6006000600060FF6019FE186670
:1049900018661866186618C618C61FC6F986618696
:1049A000033C0618A3A10000180018001800180006
:1049B0001800180018001800180000000000180067
:1049C000180000000000CAA7018019801980198012
:1049D0003FFC318061800180FFFF03C006600660FC
:1049E0000C301818300CE007B0DC00607E606660A8
:1049F0007EC07EFF7F8C7FCC7ECC7ECC7E787E7826
:104A000018303C7836CC6786C303000000000000F5
:104A10000000000000000000000000000000000096
:104A20000000000000000000000000000000000086
:104A30000000000000000000000000000000000076
:104A40000000000000000000000000000000000066
:104A50000000000000000000000000000000000056
:104A60000000000000000000000000000000000046
:104A70000000000000000000000000000000000036
:104A80000000000000000000000000000000000026
:104A90000000000000000000000000000000000016
:104AA0000000000000000000000000000000000006
:104AB00000000000000000000000000000000000F6
:104AC00000000000000000000000000000000000E6
:104AD00000000000000000000000000000000000D6
:104AE00000000000202020202000002000002828B6
:104AF0005000000000000000000000005050F8507E
:104B000050F850500000002070A8A0603028A87015
:104B10002000000048A8B0A87434544800000000E9
:104B20002050506CA8A8946800004040800000000D
:104B3000000000000000081010202020202010108D
:104B4000080040202010101010102020400000000D
:104B50000020A87070A82000000000000010107C49
:104B600010100000000000000000000000004040A5
:104B700080000000000000FC0000000000000000B9
:104B800000000000000000400000000408081010B1
:104B900020204040800000007088888888888870C5
:104BA0000000000020602020202020700000000075
:104BB00070888810204080F800000000708808305D
:104BC00008088870000000001030305090F810384D
:104BD00000000000F88080F0880888700000000065
:104BE000304880B0C8888870000000007808101035
:104BF000202020200000000070888870888888703D
:104C0000000000007088889868089060000000002C
:104C10000000200000000020000000000000002034
:104C20000000002020000000081020404020100854
:104C3000000000000000FC00FC000000000000007C
:104C400040201008081020400000000070888810E4
:104C50002020002000000000384494B4B4B8443848
:104C60000000000020203050507848CC00000000A8
:104C7000F0484870484848F000000000788880807C
:104C80008080887000000000F0484848484848F09C
:104C900000000000F8485070504048F80000000044
:104CA000F8485070504040E00000000038488080D4
:104CB0009C88483000000000CC484878484848CCE0
:104CC00000000000F8202020202020F80000000034
:104CD0007C1010101010101090E00000EC48506094
:104CE000504848EC00000000E0404040404044FC98
:104CF00000000000DCD8D8D8A8A8A8AC00000000AC
:104D0000DC486868585848E80000000070888888C7
:104D10008888887000000000F0484870404040E0FB
:104D2000000000007088888888E8987018000000EB
:104D3000F0484870504848EC0000000078888060D7
:104D4000100888F000000000F8A820202020207023
:104D500000000000CC4848484848483000000000A7
:104D6000CC4848505030202000000000A8A8A8A837
:104D70007050505000000000D8505020205050D8A3
:104D800000000000D850505020202070000000008B
:104D9000F8901020204048F80000382020202020E3
:104DA0002020202038000040402020201010100833
:104DB000080070101010101010101010700020500B
:104DC00000000000000000000000000000000000E3
:104DD0000000000000FC4020000000000000000077
:104DE00000000000000000304838483C000000C0CF
:104DF0004040407048484870000000000000003803
:104E00004840483000000018080808384848483C26
:104E10000000000000000030487840380000001812
:104E20002420207820202078000000000000003C92
:104E300048304038443800C040404070484848EC52
:104E400000000020200000602020207000000010E2
:104E5000100000301010101010E000C0404040580A
:104E6000506050C8000000E020202020202020F8C2
:104E700000000000000000F0A8A8A8A800000000A2
:104E8000000000F0484848EC00000000000000303E
:104E90004848483000000000000000F048484870D2
:104EA00040E000000000003848484838081C000076
:104EB000000000D8604040E00000000000000078E2
:104EC00040300878000000000020207820202038A2
:104ED00000000000000000D84848483C00000000E6
:104EE000000000D85050202000000000000000A862
:104EF000A870505000000000000000D8502050D88A
:104F000000000000000000CC4848301020C0000025
:104F100000000078102020780000181010101030C9
:104F20001010101018001010101010101010101089
:104F30001010602020202010202020206000689089
:104F40000000000000000000000000000000000061
:104F50000000000000000000000000000010101021
:104F6000101010100000101000000012242448003F
:104F700000000000000000000000000000121212FB
:104F80007E2424247E24242400000000083C4A4A75
:104F900048380C0A0A4A4A3C080800000044A4A801
:104FA000A8B0541A2A2A4A44000000000030484899
:104FB00048506EA49498897600000060202040003C
:104FC00000000000000000000000000204080810BB
:104FD00010101010100808040200004020101008E3
:104FE00008080808081010204000000000001010F9
:104FF000D63838D61010000000000000000000086D
:1050000008087F08080800000000000000000000F9
:1050100000000000000060202040000000000000B0
:1050200000007E0000000000000000000000000002
:1050300000000000000060600000000002040404A2
:1050400008081010102020404000000000182442E2
:105050004242424242422418000000000008380840
:10506000080808080808083E00000000003C42420A
:10507000420204081020427E00000000003C424230
:10508000020418040242423C0000000000040C0C20
:10509000142424447F04041F00000000007E4040CC
:1050A00040784402024244380000000000182440C6
:1050B000405C62424242221C00000000007E42042A
:1050C000040808101010101000000000003C4242BC
:1050D000422418244242423C00000000003844426E
:1050E0004242463A0202241800000000000000007C
:1050F0001818000000001818000000000000000050
:105100000010000000000010101000000002040851
:1051100010204020100804020000000000000000E1
:105120007E00007E00000000000000000040201013
:10513000080402040810204000000000003C424225
:105140006204080808001818000000000038445ADB
:10515000AAAAAAAAAA5C423C0000000000101018EB
:105160002828243C444242E70000000000F8444460
:1051700044784442424244F800000000003E42426B
:1051800080808080804244380000000000F8444263
:1051900042424242424244F80000000000FC4248C1
:1051A00048784848404242FC0000000000FC424869
:1051B00048784848404040E000000000003C44443B
:1051C0008080808E844444380000000000E7424222
:1051D00042427E42424242E700000000007C101042
:1051E000101010101010107C00000000003E080885
:1051F000080808080808080888F0000000EE44487D
:1052000050705048484444EE0000000000E0404028
:1052100040404040404042FE0000000000EE6C6C08
:105220006C6C6C54545454D60000000000C7626289
:1052300052524A4A4A4646E2000000000038448280
:1052400082828282828244380000000000FC424256
:1052500042427C40404040E0000000000038448270
:105260008282828282B24C380600000000FC4242F8
:10527000427C4848444442E300000000003E424271
:10528000402018040242427C0000000000FE921000
:1052900010101010101010380000000000E74242FB
:1052A000424242424242423C0000000000E7424289
:1052B00044242428281810100000000000D654545C
:1052C0005454546C282828280000000000E7422489
:1052D00024181818242442E70000000000EE44447B
:1052E000282810101010103800000000007E8404E0
:1052F00008081020204242FC0000001E1010101070
:1053000010101010101010101E000000402020205F
:1053100010101008080404040202007808080808A5
:105320000808080808080808780000182400000089
:10533000000000000000000000000000000000006D
:10534000000000000000000000FF006010000000EE
:10535000000000000000000000000000000000004D
:105360000038440C34444C36000000000000C040BB
:1053700040586442424264580000000000000000AF
:10538000001C22404040221C0000000000000602D9
:10539000023E42424242463B000000000000000044
:1053A000003C42427E40423C0000000000000C12E3
:1053B000107C10101010107C000000000000000095
:1053C000003E444438403C42423C00000000C040A3
:1053D000405C6242424242E7000000000030300080
:1053E000007010101010107C00000000000C0C0069
:1053F000001C040404040404447800000000C040BD
:10540000404E4850704844EE0000000000107010FC
:10541000101010101010107C0000000000000000A0
:1054200000FE4949494949ED000000000000000024
:1054300000DC6242424242E700000000000000003F
:10544000003C42424242423C00000000000000009A
:1054500000D864424242645840E00000000000006E
:10546000001A26424242261A0207000000000000ED
:1054700000EE3220202020F8000000000000000094
:10548000003E42403C02427C000000000000001050
:10549000107C10101010120C000000000000000022
:1054A00000C642424242463B0000000000000000AD
:1054B00000EE444428281010000000000000000006
:1054C00000DB894A5A542424000000000000000038
:1054D000007624181818246E000000000000000058
:1054E00000E742242418181010600000000000009B
:1054F000007E44081010227E00000003040404040F
:105500000404080404040404030008080808080844
:105510000808080808080808080800C020202020FB
:105520002020102020202020C000205A040000004D
:10553000000000000000000000000000161718190D
:10554000001011121314150504000000CC000020F7
:10555000000000000000000000000000000000004B
:10556000000000000000000000000000000000003B
:10557000000000000000000000000000000000002B
:10558000000000000000000000000000000000001B
:10559000000000000000000000000000000000000B
:1055A00000000000000000000000000000000000FB
:1055B00000000000000000000000000000000000EB
:1055C00000000000000000000000000000000000DB
:1055D00000000000000000000000000000000000CB
:1055E00000000000000000000000000000000000BB
:1055F00000000000000000000000000000000000AB
:10560000000000000000000000000000000000009A
:10561000000000000000000004000008000000007E
:1056200000000002000100001000000032C9BEB3FB
:10563000FDB5A5B8F6C8CBC1B349440033C9BEB364
:10564000FDC8ABB2BFC8CBC1B3D0C5CFA20000006C
:1056500034C8CBC1B3CCD8D5F7B2E2CAD40000006D
:1056600031CCEDBCD3C8CBC1B3CCD8D5F70000004A
:1056700090560008000000206C0100006C0100083A
:10568000F45600086C010020CC070000C801000897
:105690001360561B082C041A3C041A50040217FF0E
:1056A0002918E92C41091214091A18335A2C8412AA
:1056B000030C4B06E5127A02124B2AC2127A0D1223
:1056C0004B871E126A04124C095FD1127A13240B05
:1056D00030D4B78C091618092F3484A24A046809FB
:1056E00001020304060708090C69100500020406FC
:0456F00008000000AE
:0400000508000131BD
:00000001FF
